{"contracts/Campaign.sol":{"Campaign":{"abi":[{"inputs":[],"stateMutability":"nonpayable","type":"constructor"},{"anonymous":false,"inputs":[{"indexed":true,"internalType":"uint256","name":"campaignId","type":"uint256"},{"indexed":true,"internalType":"address","name":"creator","type":"address"}],"name":"CampaignClosed","type":"event"},{"anonymous":false,"inputs":[{"indexed":true,"internalType":"uint256","name":"campaignId","type":"uint256"},{"indexed":true,"internalType":"address","name":"creator","type":"address"},{"indexed":false,"internalType":"uint256","name":"goal","type":"uint256"},{"indexed":false,"internalType":"uint256","name":"deadline","type":"uint256"},{"indexed":false,"internalType":"string","name":"metadataCID","type":"string"}],"name":"CampaignCreated","type":"event"},{"anonymous":false,"inputs":[{"indexed":true,"internalType":"uint256","name":"campaignId","type":"uint256"},{"indexed":false,"internalType":"uint256","name":"newGoal","type":"uint256"},{"indexed":false,"internalType":"uint256","name":"newDeadline","type":"uint256"},{"indexed":false,"internalType":"string","name":"newMetadataCID","type":"string"}],"name":"CampaignUpdated","type":"event"},{"anonymous":false,"inputs":[{"indexed":true,"internalType":"uint256","name":"campaignId","type":"uint256"},{"indexed":true,"internalType":"address","name":"contributor","type":"address"},{"indexed":false,"internalType":"uint256","name":"amount","type":"uint256"}],"name":"ContributionMade","type":"event"},{"anonymous":false,"inputs":[{"indexed":true,"internalType":"uint256","name":"campaignId","type":"uint256"},{"indexed":false,"internalType":"uint256","name":"amount","type":"uint256"}],"name":"FeesCollected","type":"event"},{"anonymous":false,"inputs":[{"indexed":true,"internalType":"uint256","name":"campaignId","type":"uint256"},{"indexed":true,"internalType":"address","name":"creator","type":"address"},{"indexed":false,"internalType":"uint256","name":"amount","type":"uint256"}],"name":"FundsWithdrawn","type":"event"},{"inputs":[{"internalType":"uint256","name":"","type":"uint256"}],"name":"campaignFees","outputs":[{"internalType":"uint256","name":"","type":"uint256"}],"stateMutability":"view","type":"function"},{"inputs":[{"internalType":"uint256","name":"","type":"uint256"}],"name":"campaigns","outputs":[{"internalType":"uint256","name":"id","type":"uint256"},{"internalType":"address payable","name":"creator","type":"address"},{"internalType":"uint256","name":"goal","type":"uint256"},{"internalType":"uint256","name":"deadline","type":"uint256"},{"internalType":"uint256","name":"totalFunded","type":"uint256"},{"internalType":"uint256","name":"totalContributions","type":"uint256"},{"internalType":"string","name":"metadataCID","type":"string"},{"internalType":"enum Campaign.CampaignStatus","name":"status","type":"uint8"}],"stateMutability":"view","type":"function"},{"inputs":[{"internalType":"uint256","name":"_campaignId","type":"uint256"}],"name":"closeCampaign","outputs":[],"stateMutability":"nonpayable","type":"function"},{"inputs":[{"internalType":"uint256","name":"_campaignId","type":"uint256"}],"name":"collectFees","outputs":[],"stateMutability":"nonpayable","type":"function"},{"inputs":[{"internalType":"uint256","name":"_campaignId","type":"uint256"}],"name":"contribute","outputs":[],"stateMutability":"payable","type":"function"},{"inputs":[{"internalType":"uint256","name":"","type":"uint256"},{"internalType":"address","name":"","type":"address"}],"name":"contributions","outputs":[{"internalType":"uint256","name":"","type":"uint256"}],"stateMutability":"view","type":"function"},{"inputs":[{"internalType":"uint256","name":"_goal","type":"uint256"},{"internalType":"uint256","name":"_deadline","type":"uint256"},{"internalType":"string","name":"_metadataCID","type":"string"}],"name":"createCampaign","outputs":[],"stateMutability":"nonpayable","type":"function"},{"inputs":[],"name":"feeReceiver","outputs":[{"internalType":"address","name":"","type":"address"}],"stateMutability":"view","type":"function"},{"inputs":[{"internalType":"uint256","name":"_campaignId","type":"uint256"}],"name":"getCampaign","outputs":[{"internalType":"uint256","name":"id","type":"uint256"},{"internalType":"address","name":"creator","type":"address"},{"internalType":"uint256","name":"goal","type":"uint256"},{"internalType":"uint256","name":"deadline","type":"uint256"},{"internalType":"uint256","name":"totalFunded","type":"uint256"},{"internalType":"uint256","name":"totalContributions","type":"uint256"},{"internalType":"string","name":"metadataCID","type":"string"},{"internalType":"enum Campaign.CampaignStatus","name":"status","type":"uint8"}],"stateMutability":"view","type":"function"},{"inputs":[],"name":"getCampaignCount","outputs":[{"internalType":"uint256","name":"","type":"uint256"}],"stateMutability":"view","type":"function"},{"inputs":[{"internalType":"uint256","name":"_campaignId","type":"uint256"},{"internalType":"uint256","name":"_newGoal","type":"uint256"},{"internalType":"uint256","name":"_newDeadline","type":"uint256"},{"internalType":"string","name":"_newMetadataCID","type":"string"}],"name":"updateCampaign","outputs":[],"stateMutability":"nonpayable","type":"function"},{"inputs":[{"internalType":"uint256","name":"_campaignId","type":"uint256"}],"name":"withdraw","outputs":[],"stateMutability":"nonpayable","type":"function"}],"evm":{"bytecode":{"linkReferences":{},"object":"6080604052348015600f57600080fd5b5033600460006101000a81548173ffffffffffffffffffffffffffffffffffffffff021916908373ffffffffffffffffffffffffffffffffffffffff1602179055506125de806100606000396000f3fe6080604052600436106100a75760003560e01c80636caa9218116100645780636caa92181461020057806391cbf44e1461022b578063b0e1c1e114610254578063b17acdcd1461027d578063b3f00674146102a6578063c1cbbca7146102d1576100a7565b8063141961bc146100ac5780632e1a7d4d146100f05780633d891f5914610119578063470f37961461015657806348c4e3c3146101935780635598f8cc146101bc575b600080fd5b3480156100b857600080fd5b506100d360048036038101906100ce91906112e3565b6102ed565b6040516100e7989796959493929190611467565b60405180910390f35b3480156100fc57600080fd5b50610117600480360381019061011291906112e3565b6103ea565b005b34801561012557600080fd5b50610140600480360381019061013b919061152a565b6106f4565b60405161014d919061156a565b60405180910390f35b34801561016257600080fd5b5061017d600480360381019061017891906112e3565b610719565b60405161018a919061156a565b60405180910390f35b34801561019f57600080fd5b506101ba60048036038101906101b591906115ea565b610731565b005b3480156101c857600080fd5b506101e360048036038101906101de91906112e3565b610946565b6040516101f7989796959493929190611681565b60405180910390f35b34801561020c57600080fd5b50610215610a65565b604051610222919061156a565b60405180910390f35b34801561023757600080fd5b50610252600480360381019061024d9190611706565b610a6e565b005b34801561026057600080fd5b5061027b600480360381019061027691906112e3565b610cea565b005b34801561028957600080fd5b506102a4600480360381019061029f91906112e3565b610e80565b005b3480156102b257600080fd5b506102bb610fff565b6040516102c8919061177a565b60405180910390f35b6102eb60048036038101906102e691906112e3565b611025565b005b60016020528060005260406000206000915090508060000154908060010160009054906101000a900473ffffffffffffffffffffffffffffffffffffffff1690806002015490806003015490806004015490806005015490806006018054610354906117c4565b80601f0160208091040260200160405190810160405280929190818152602001828054610380906117c4565b80156103cd5780601f106103a2576101008083540402835291602001916103cd565b820191906000526020600020905b8154815290600101906020018083116103b057829003601f168201915b5050505050908060070160009054906101000a900460ff16905088565b60006001600083815260200190815260200160002090508060010160009054906101000a900473ffffffffffffffffffffffffffffffffffffffff1673ffffffffffffffffffffffffffffffffffffffff163373ffffffffffffffffffffffffffffffffffffffff1614610493576040517f08c379a000000000000000000000000000000000000000000000000000000000815260040161048a90611841565b60405180910390fd5b6001808111156104a6576104a56113f0565b5b8160070160009054906101000a900460ff1660018111156104ca576104c96113f0565b5b1461050a576040517f08c379a0000000000000000000000000000000000000000000000000000000008152600401610501906118ad565b60405180910390fd5b6000816004015411610551576040517f08c379a000000000000000000000000000000000000000000000000000000000815260040161054890611919565b60405180910390fd5b60008160040154905060006103e860198361056c9190611968565b61057691906119d9565b9050600081836105869190611a0a565b905060018460070160006101000a81548160ff021916908360018111156105b0576105af6113f0565b5b021790555081600360008781526020019081526020016000208190555060008460010160009054906101000a900473ffffffffffffffffffffffffffffffffffffffff1673ffffffffffffffffffffffffffffffffffffffff168260405161061790611a6f565b60006040518083038185875af1925050503d8060008114610654576040519150601f19603f3d011682016040523d82523d6000602084013e610659565b606091505b505090508061069d576040517f08c379a000000000000000000000000000000000000000000000000000000000815260040161069490611ad0565b60405180910390fd5b3373ffffffffffffffffffffffffffffffffffffffff16867ff440aec6b52895984d061d622e6edeba6210f7c3e059be920663140c084560d7846040516106e4919061156a565b60405180910390a3505050505050565b6002602052816000526040600020602052806000526040600020600091509150505481565b60036020528060005260406000206000915090505481565b60006001600087815260200190815260200160002090508060010160009054906101000a900473ffffffffffffffffffffffffffffffffffffffff1673ffffffffffffffffffffffffffffffffffffffff163373ffffffffffffffffffffffffffffffffffffffff16146107da576040517f08c379a00000000000000000000000000000000000000000000000000000000081526004016107d190611b62565b60405180910390fd5b600060018111156107ee576107ed6113f0565b5b8160070160009054906101000a900460ff166001811115610812576108116113f0565b5b14610852576040517f08c379a000000000000000000000000000000000000000000000000000000000815260040161084990611bce565b60405180910390fd5b428411610894576040517f08c379a000000000000000000000000000000000000000000000000000000000815260040161088b90611c60565b60405180910390fd5b806004015485116108da576040517f08c379a00000000000000000000000000000000000000000000000000000000081526004016108d190611cf2565b60405180910390fd5b84816002018190555083816003018190555082828260060191826108ff929190611ef8565b50857fe8455e3a730598aeb3288ea71db44debb4af47b4d6ab68543dc5e9f22096f249868686866040516109369493929190612004565b60405180910390a2505050505050565b6000806000806000806060600080600160008b8152602001908152602001600020905080600001548160010160009054906101000a900473ffffffffffffffffffffffffffffffffffffffff168260020154836003015484600401548560050154866006018760070160009054906101000a900460ff168180546109c9906117c4565b80601f01602080910402602001604051908101604052809291908181526020018280546109f5906117c4565b8015610a425780601f10610a1757610100808354040283529160200191610a42565b820191906000526020600020905b815481529060010190602001808311610a2557829003601f168201915b505050505091509850985098509850985098509850985050919395975091939597565b60008054905090565b428311610ab0576040517f08c379a0000000000000000000000000000000000000000000000000000000008152600401610aa790612090565b60405180910390fd5b60008411610af3576040517f08c379a0000000000000000000000000000000000000000000000000000000008152600401610aea906120fc565b60405180910390fd5b6001600080828254610b05919061211c565b9250508190555060405180610100016040528060005481526020013373ffffffffffffffffffffffffffffffffffffffff168152602001858152602001848152602001600081526020016000815260200183838080601f016020809104026020016040519081016040528093929190818152602001838380828437600081840152601f19601f82011690508083019250505050505050815260200160006001811115610bb457610bb36113f0565b5b81525060016000805481526020019081526020016000206000820151816000015560208201518160010160006101000a81548173ffffffffffffffffffffffffffffffffffffffff021916908373ffffffffffffffffffffffffffffffffffffffff16021790555060408201518160020155606082015181600301556080820151816004015560a0820151816005015560c0820151816006019081610c599190612150565b5060e08201518160070160006101000a81548160ff02191690836001811115610c8557610c846113f0565b5b02179055509050503373ffffffffffffffffffffffffffffffffffffffff166000547f2e64da7e06e88ccd84d69eccb21119ca81e40e5648611e89edfe888c8fa6259786868686604051610cdc9493929190612004565b60405180910390a350505050565b60006001600083815260200190815260200160002090508060010160009054906101000a900473ffffffffffffffffffffffffffffffffffffffff1673ffffffffffffffffffffffffffffffffffffffff163373ffffffffffffffffffffffffffffffffffffffff1614610d93576040517f08c379a0000000000000000000000000000000000000000000000000000000008152600401610d8a9061226e565b60405180910390fd5b60006001811115610da757610da66113f0565b5b8160070160009054906101000a900460ff166001811115610dcb57610dca6113f0565b5b14610e0b576040517f08c379a0000000000000000000000000000000000000000000000000000000008152600401610e02906122da565b60405180910390fd5b60018160070160006101000a81548160ff02191690836001811115610e3357610e326113f0565b5b02179055503373ffffffffffffffffffffffffffffffffffffffff16827fa78af03f83be4496e7f3344865e5d4a44fa8ed036ba56cabd413e1882b92a79f60405160405180910390a35050565b60006003600083815260200190815260200160002054905060008111610edb576040517f08c379a0000000000000000000000000000000000000000000000000000000008152600401610ed290612346565b60405180910390fd5b600060036000848152602001908152602001600020819055506000600460009054906101000a900473ffffffffffffffffffffffffffffffffffffffff1673ffffffffffffffffffffffffffffffffffffffff1682604051610f3c90611a6f565b60006040518083038185875af1925050503d8060008114610f79576040519150601f19603f3d011682016040523d82523d6000602084013e610f7e565b606091505b5050905080610fc2576040517f08c379a0000000000000000000000000000000000000000000000000000000008152600401610fb9906123b2565b60405180910390fd5b827f49d512bf9cb224241c05691e73eb9fab078cf350c7dbcbcf66788f1fc0cc8b0b83604051610ff2919061156a565b60405180910390a2505050565b600460009054906101000a900473ffffffffffffffffffffffffffffffffffffffff1681565b600060016000838152602001908152602001600020905060018081111561104f5761104e6113f0565b5b8160070160009054906101000a900460ff166001811115611073576110726113f0565b5b036110b3576040517f08c379a00000000000000000000000000000000000000000000000000000000081526004016110aa9061241e565b60405180910390fd5b806003015442106110f9576040517f08c379a00000000000000000000000000000000000000000000000000000000081526004016110f09061248a565b60405180910390fd5b6000341161113c576040517f08c379a0000000000000000000000000000000000000000000000000000000008152600401611133906124f6565b60405180910390fd5b8060010160009054906101000a900473ffffffffffffffffffffffffffffffffffffffff1673ffffffffffffffffffffffffffffffffffffffff163373ffffffffffffffffffffffffffffffffffffffff16036111ce576040517f08c379a00000000000000000000000000000000000000000000000000000000081526004016111c590612588565b60405180910390fd5b348160040160008282546111e2919061211c565b92505081905550346002600084815260200190815260200160002060003373ffffffffffffffffffffffffffffffffffffffff1673ffffffffffffffffffffffffffffffffffffffff1681526020019081526020016000206000828254611249919061211c565b925050819055503373ffffffffffffffffffffffffffffffffffffffff16827f0a4a91237423e0a1766a761c7cb029311d8b95d6b1b81db1b949a70c98b4e08e34604051611297919061156a565b60405180910390a35050565b600080fd5b600080fd5b6000819050919050565b6112c0816112ad565b81146112cb57600080fd5b50565b6000813590506112dd816112b7565b92915050565b6000602082840312156112f9576112f86112a3565b5b6000611307848285016112ce565b91505092915050565b611319816112ad565b82525050565b600073ffffffffffffffffffffffffffffffffffffffff82169050919050565b600061134a8261131f565b9050919050565b61135a8161133f565b82525050565b600081519050919050565b600082825260208201905092915050565b60005b8381101561139a57808201518184015260208101905061137f565b60008484015250505050565b6000601f19601f8301169050919050565b60006113c282611360565b6113cc818561136b565b93506113dc81856020860161137c565b6113e5816113a6565b840191505092915050565b7f4e487b7100000000000000000000000000000000000000000000000000000000600052602160045260246000fd5b600281106114305761142f6113f0565b5b50565b60008190506114418261141f565b919050565b600061145182611433565b9050919050565b61146181611446565b82525050565b60006101008201905061147d600083018b611310565b61148a602083018a611351565b6114976040830189611310565b6114a46060830188611310565b6114b16080830187611310565b6114be60a0830186611310565b81810360c08301526114d081856113b7565b90506114df60e0830184611458565b9998505050505050505050565b60006114f78261131f565b9050919050565b611507816114ec565b811461151257600080fd5b50565b600081359050611524816114fe565b92915050565b60008060408385031215611541576115406112a3565b5b600061154f858286016112ce565b925050602061156085828601611515565b9150509250929050565b600060208201905061157f6000830184611310565b92915050565b600080fd5b600080fd5b600080fd5b60008083601f8401126115aa576115a9611585565b5b8235905067ffffffffffffffff8111156115c7576115c661158a565b5b6020830191508360018202830111156115e3576115e261158f565b5b9250929050565b600080600080600060808688031215611606576116056112a3565b5b6000611614888289016112ce565b9550506020611625888289016112ce565b9450506040611636888289016112ce565b935050606086013567ffffffffffffffff811115611657576116566112a8565b5b61166388828901611594565b92509250509295509295909350565b61167b816114ec565b82525050565b600061010082019050611697600083018b611310565b6116a4602083018a611672565b6116b16040830189611310565b6116be6060830188611310565b6116cb6080830187611310565b6116d860a0830186611310565b81810360c08301526116ea81856113b7565b90506116f960e0830184611458565b9998505050505050505050565b600080600080606085870312156117205761171f6112a3565b5b600061172e878288016112ce565b945050602061173f878288016112ce565b935050604085013567ffffffffffffffff8111156117605761175f6112a8565b5b61176c87828801611594565b925092505092959194509250565b600060208201905061178f6000830184611672565b92915050565b7f4e487b7100000000000000000000000000000000000000000000000000000000600052602260045260246000fd5b600060028204905060018216806117dc57607f821691505b6020821081036117ef576117ee611795565b5b50919050565b7f4f6e6c792063726561746f722063616e20776974686472617700000000000000600082015250565b600061182b60198361136b565b9150611836826117f5565b602082019050919050565b6000602082019050818103600083015261185a8161181e565b9050919050565b7f43616d706169676e206d75737420626520636c6f736564000000000000000000600082015250565b600061189760178361136b565b91506118a282611861565b602082019050919050565b600060208201905081810360008301526118c68161188a565b9050919050565b7f4e6f2066756e647320617661696c61626c6520746f2077697468647261770000600082015250565b6000611903601e8361136b565b915061190e826118cd565b602082019050919050565b60006020820190508181036000830152611932816118f6565b9050919050565b7f4e487b7100000000000000000000000000000000000000000000000000000000600052601160045260246000fd5b6000611973826112ad565b915061197e836112ad565b925082820261198c816112ad565b915082820484148315176119a3576119a2611939565b5b5092915050565b7f4e487b7100000000000000000000000000000000000000000000000000000000600052601260045260246000fd5b60006119e4826112ad565b91506119ef836112ad565b9250826119ff576119fe6119aa565b5b828204905092915050565b6000611a15826112ad565b9150611a20836112ad565b9250828203905081811115611a3857611a37611939565b5b92915050565b600081905092915050565b50565b6000611a59600083611a3e565b9150611a6482611a49565b600082019050919050565b6000611a7a82611a4c565b9150819050919050565b7f5769746864726177207472616e73666572206661696c65640000000000000000600082015250565b6000611aba60188361136b565b9150611ac582611a84565b602082019050919050565b60006020820190508181036000830152611ae981611aad565b9050919050565b7f4f6e6c792063726561746f722063616e20757064617465207468652063616d7060008201527f6169676e00000000000000000000000000000000000000000000000000000000602082015250565b6000611b4c60248361136b565b9150611b5782611af0565b604082019050919050565b60006020820190508181036000830152611b7b81611b3f565b9050919050565b7f43616d706169676e206973206e6f742061637469766500000000000000000000600082015250565b6000611bb860168361136b565b9150611bc382611b82565b602082019050919050565b60006020820190508181036000830152611be781611bab565b9050919050565b7f4e657720646561646c696e65206d75737420626520696e20746865206675747560008201527f7265000000000000000000000000000000000000000000000000000000000000602082015250565b6000611c4a60228361136b565b9150611c5582611bee565b604082019050919050565b60006020820190508181036000830152611c7981611c3d565b9050919050565b7f4e657720676f616c206d7573742062652067726561746572207468616e20746f60008201527f74616c2066756e64656400000000000000000000000000000000000000000000602082015250565b6000611cdc602a8361136b565b9150611ce782611c80565b604082019050919050565b60006020820190508181036000830152611d0b81611ccf565b9050919050565b600082905092915050565b7f4e487b7100000000000000000000000000000000000000000000000000000000600052604160045260246000fd5b60008190508160005260206000209050919050565b60006020601f8301049050919050565b600082821b905092915050565b600060088302611dae7fffffffffffffffffffffffffffffffffffffffffffffffffffffffffffffffff82611d71565b611db88683611d71565b95508019841693508086168417925050509392505050565b6000819050919050565b6000611df5611df0611deb846112ad565b611dd0565b6112ad565b9050919050565b6000819050919050565b611e0f83611dda565b611e23611e1b82611dfc565b848454611d7e565b825550505050565b600090565b611e38611e2b565b611e43818484611e06565b505050565b5b81811015611e6757611e5c600082611e30565b600181019050611e49565b5050565b601f821115611eac57611e7d81611d4c565b611e8684611d61565b81016020851015611e95578190505b611ea9611ea185611d61565b830182611e48565b50505b505050565b600082821c905092915050565b6000611ecf60001984600802611eb1565b1980831691505092915050565b6000611ee88383611ebe565b9150826002028217905092915050565b611f028383611d12565b67ffffffffffffffff811115611f1b57611f1a611d1d565b5b611f2582546117c4565b611f30828285611e6b565b6000601f831160018114611f5f5760008415611f4d578287013590505b611f578582611edc565b865550611fbf565b601f198416611f6d86611d4c565b60005b82811015611f9557848901358255600182019150602085019450602081019050611f70565b86831015611fb25784890135611fae601f891682611ebe565b8355505b6001600288020188555050505b50505050505050565b82818337600083830152505050565b6000611fe3838561136b565b9350611ff0838584611fc8565b611ff9836113a6565b840190509392505050565b60006060820190506120196000830187611310565b6120266020830186611310565b8181036040830152612039818486611fd7565b905095945050505050565b7f446561646c696e65206d75737420626520696e20746865206675747572650000600082015250565b600061207a601e8361136b565b915061208582612044565b602082019050919050565b600060208201905081810360008301526120a98161206d565b9050919050565b7f476f616c206d7573742062652067726561746572207468616e20300000000000600082015250565b60006120e6601b8361136b565b91506120f1826120b0565b602082019050919050565b60006020820190508181036000830152612115816120d9565b9050919050565b6000612127826112ad565b9150612132836112ad565b925082820190508082111561214a57612149611939565b5b92915050565b61215982611360565b67ffffffffffffffff81111561217257612171611d1d565b5b61217c82546117c4565b612187828285611e6b565b600060209050601f8311600181146121ba57600084156121a8578287015190505b6121b28582611edc565b86555061221a565b601f1984166121c886611d4c565b60005b828110156121f0578489015182556001820191506020850194506020810190506121cb565b8683101561220d5784890151612209601f891682611ebe565b8355505b6001600288020188555050505b505050505050565b7f4f6e6c792063726561746f722063616e20636c6f736500000000000000000000600082015250565b600061225860168361136b565b915061226382612222565b602082019050919050565b600060208201905081810360008301526122878161224b565b9050919050565b7f43616d706169676e2063616e6e6f7420626520636c6f73656400000000000000600082015250565b60006122c460198361136b565b91506122cf8261228e565b602082019050919050565b600060208201905081810360008301526122f3816122b7565b9050919050565b7f4e6f206665657320746f20636f6c6c6563740000000000000000000000000000600082015250565b600061233060128361136b565b915061233b826122fa565b602082019050919050565b6000602082019050818103600083015261235f81612323565b9050919050565b7f466565207472616e73666572206661696c656400000000000000000000000000600082015250565b600061239c60138361136b565b91506123a782612366565b602082019050919050565b600060208201905081810360008301526123cb8161238f565b9050919050565b7f43616d706169676e20697320636c6f7365640000000000000000000000000000600082015250565b600061240860128361136b565b9150612413826123d2565b602082019050919050565b60006020820190508181036000830152612437816123fb565b9050919050565b7f43616d706169676e2068617320656e6465640000000000000000000000000000600082015250565b600061247460128361136b565b915061247f8261243e565b602082019050919050565b600060208201905081810360008301526124a381612467565b9050919050565b7f4e6f204554482073656e74000000000000000000000000000000000000000000600082015250565b60006124e0600b8361136b565b91506124eb826124aa565b602082019050919050565b6000602082019050818103600083015261250f816124d3565b9050919050565b7f43726561746f722063616e6e6f742066756e64207468656972206f776e20636160008201527f6d706169676e0000000000000000000000000000000000000000000000000000602082015250565b600061257260268361136b565b915061257d82612516565b604082019050919050565b600060208201905081810360008301526125a181612565565b905091905056fea2646970667358221220d9eecee3a02cda28aba9f0e7b5e0fc6bdab588cc236f8aa0bac8f68d331d613d64736f6c634300081c0033","opcodes":"PUSH1 0x80 PUSH1 0x40 MSTORE CALLVALUE DUP1 ISZERO PUSH1 0xF JUMPI PUSH1 0x0 DUP1 REVERT JUMPDEST POP CALLER PUSH1 0x4 PUSH1 0x0 PUSH2 0x100 EXP DUP2 SLOAD DUP2 PUSH20 0xFFFFFFFFFFFFFFFFFFFFFFFFFFFFFFFFFFFFFFFF MUL NOT AND SWAP1 DUP4 PUSH20 0xFFFFFFFFFFFFFFFFFFFFFFFFFFFFFFFFFFFFFFFF AND MUL OR SWAP1 SSTORE POP PUSH2 0x25DE DUP1 PUSH2 0x60 PUSH1 0x0 CODECOPY PUSH1 0x0 RETURN INVALID PUSH1 0x80 PUSH1 0x40 MSTORE PUSH1 0x4 CALLDATASIZE LT PUSH2 0xA7 JUMPI PUSH1 0x0 CALLDATALOAD PUSH1 0xE0 SHR DUP1 PUSH4 0x6CAA9218 GT PUSH2 0x64 JUMPI DUP1 PUSH4 0x6CAA9218 EQ PUSH2 0x200 JUMPI DUP1 PUSH4 0x91CBF44E EQ PUSH2 0x22B JUMPI DUP1 PUSH4 0xB0E1C1E1 EQ PUSH2 0x254 JUMPI DUP1 PUSH4 0xB17ACDCD EQ PUSH2 0x27D JUMPI DUP1 PUSH4 0xB3F00674 EQ PUSH2 0x2A6 JUMPI DUP1 PUSH4 0xC1CBBCA7 EQ PUSH2 0x2D1 JUMPI PUSH2 0xA7 JUMP JUMPDEST DUP1 PUSH4 0x141961BC EQ PUSH2 0xAC JUMPI DUP1 PUSH4 0x2E1A7D4D EQ PUSH2 0xF0 JUMPI DUP1 PUSH4 0x3D891F59 EQ PUSH2 0x119 JUMPI DUP1 PUSH4 0x470F3796 EQ PUSH2 0x156 JUMPI DUP1 PUSH4 0x48C4E3C3 EQ PUSH2 0x193 JUMPI DUP1 PUSH4 0x5598F8CC EQ PUSH2 0x1BC JUMPI JUMPDEST PUSH1 0x0 DUP1 REVERT JUMPDEST CALLVALUE DUP1 ISZERO PUSH2 0xB8 JUMPI PUSH1 0x0 DUP1 REVERT JUMPDEST POP PUSH2 0xD3 PUSH1 0x4 DUP1 CALLDATASIZE SUB DUP2 ADD SWAP1 PUSH2 0xCE SWAP2 SWAP1 PUSH2 0x12E3 JUMP JUMPDEST PUSH2 0x2ED JUMP JUMPDEST PUSH1 0x40 MLOAD PUSH2 0xE7 SWAP9 SWAP8 SWAP7 SWAP6 SWAP5 SWAP4 SWAP3 SWAP2 SWAP1 PUSH2 0x1467 JUMP JUMPDEST PUSH1 0x40 MLOAD DUP1 SWAP2 SUB SWAP1 RETURN JUMPDEST CALLVALUE DUP1 ISZERO PUSH2 0xFC JUMPI PUSH1 0x0 DUP1 REVERT JUMPDEST POP PUSH2 0x117 PUSH1 0x4 DUP1 CALLDATASIZE SUB DUP2 ADD SWAP1 PUSH2 0x112 SWAP2 SWAP1 PUSH2 0x12E3 JUMP JUMPDEST PUSH2 0x3EA JUMP JUMPDEST STOP JUMPDEST CALLVALUE DUP1 ISZERO PUSH2 0x125 JUMPI PUSH1 0x0 DUP1 REVERT JUMPDEST POP PUSH2 0x140 PUSH1 0x4 DUP1 CALLDATASIZE SUB DUP2 ADD SWAP1 PUSH2 0x13B SWAP2 SWAP1 PUSH2 0x152A JUMP JUMPDEST PUSH2 0x6F4 JUMP JUMPDEST PUSH1 0x40 MLOAD PUSH2 0x14D SWAP2 SWAP1 PUSH2 0x156A JUMP JUMPDEST PUSH1 0x40 MLOAD DUP1 SWAP2 SUB SWAP1 RETURN JUMPDEST CALLVALUE DUP1 ISZERO PUSH2 0x162 JUMPI PUSH1 0x0 DUP1 REVERT JUMPDEST POP PUSH2 0x17D PUSH1 0x4 DUP1 CALLDATASIZE SUB DUP2 ADD SWAP1 PUSH2 0x178 SWAP2 SWAP1 PUSH2 0x12E3 JUMP JUMPDEST PUSH2 0x719 JUMP JUMPDEST PUSH1 0x40 MLOAD PUSH2 0x18A SWAP2 SWAP1 PUSH2 0x156A JUMP JUMPDEST PUSH1 0x40 MLOAD DUP1 SWAP2 SUB SWAP1 RETURN JUMPDEST CALLVALUE DUP1 ISZERO PUSH2 0x19F JUMPI PUSH1 0x0 DUP1 REVERT JUMPDEST POP PUSH2 0x1BA PUSH1 0x4 DUP1 CALLDATASIZE SUB DUP2 ADD SWAP1 PUSH2 0x1B5 SWAP2 SWAP1 PUSH2 0x15EA JUMP JUMPDEST PUSH2 0x731 JUMP JUMPDEST STOP JUMPDEST CALLVALUE DUP1 ISZERO PUSH2 0x1C8 JUMPI PUSH1 0x0 DUP1 REVERT JUMPDEST POP PUSH2 0x1E3 PUSH1 0x4 DUP1 CALLDATASIZE SUB DUP2 ADD SWAP1 PUSH2 0x1DE SWAP2 SWAP1 PUSH2 0x12E3 JUMP JUMPDEST PUSH2 0x946 JUMP JUMPDEST PUSH1 0x40 MLOAD PUSH2 0x1F7 SWAP9 SWAP8 SWAP7 SWAP6 SWAP5 SWAP4 SWAP3 SWAP2 SWAP1 PUSH2 0x1681 JUMP JUMPDEST PUSH1 0x40 MLOAD DUP1 SWAP2 SUB SWAP1 RETURN JUMPDEST CALLVALUE DUP1 ISZERO PUSH2 0x20C JUMPI PUSH1 0x0 DUP1 REVERT JUMPDEST POP PUSH2 0x215 PUSH2 0xA65 JUMP JUMPDEST PUSH1 0x40 MLOAD PUSH2 0x222 SWAP2 SWAP1 PUSH2 0x156A JUMP JUMPDEST PUSH1 0x40 MLOAD DUP1 SWAP2 SUB SWAP1 RETURN JUMPDEST CALLVALUE DUP1 ISZERO PUSH2 0x237 JUMPI PUSH1 0x0 DUP1 REVERT JUMPDEST POP PUSH2 0x252 PUSH1 0x4 DUP1 CALLDATASIZE SUB DUP2 ADD SWAP1 PUSH2 0x24D SWAP2 SWAP1 PUSH2 0x1706 JUMP JUMPDEST PUSH2 0xA6E JUMP JUMPDEST STOP JUMPDEST CALLVALUE DUP1 ISZERO PUSH2 0x260 JUMPI PUSH1 0x0 DUP1 REVERT JUMPDEST POP PUSH2 0x27B PUSH1 0x4 DUP1 CALLDATASIZE SUB DUP2 ADD SWAP1 PUSH2 0x276 SWAP2 SWAP1 PUSH2 0x12E3 JUMP JUMPDEST PUSH2 0xCEA JUMP JUMPDEST STOP JUMPDEST CALLVALUE DUP1 ISZERO PUSH2 0x289 JUMPI PUSH1 0x0 DUP1 REVERT JUMPDEST POP PUSH2 0x2A4 PUSH1 0x4 DUP1 CALLDATASIZE SUB DUP2 ADD SWAP1 PUSH2 0x29F SWAP2 SWAP1 PUSH2 0x12E3 JUMP JUMPDEST PUSH2 0xE80 JUMP JUMPDEST STOP JUMPDEST CALLVALUE DUP1 ISZERO PUSH2 0x2B2 JUMPI PUSH1 0x0 DUP1 REVERT JUMPDEST POP PUSH2 0x2BB PUSH2 0xFFF JUMP JUMPDEST PUSH1 0x40 MLOAD PUSH2 0x2C8 SWAP2 SWAP1 PUSH2 0x177A JUMP JUMPDEST PUSH1 0x40 MLOAD DUP1 SWAP2 SUB SWAP1 RETURN JUMPDEST PUSH2 0x2EB PUSH1 0x4 DUP1 CALLDATASIZE SUB DUP2 ADD SWAP1 PUSH2 0x2E6 SWAP2 SWAP1 PUSH2 0x12E3 JUMP JUMPDEST PUSH2 0x1025 JUMP JUMPDEST STOP JUMPDEST PUSH1 0x1 PUSH1 0x20 MSTORE DUP1 PUSH1 0x0 MSTORE PUSH1 0x40 PUSH1 0x0 KECCAK256 PUSH1 0x0 SWAP2 POP SWAP1 POP DUP1 PUSH1 0x0 ADD SLOAD SWAP1 DUP1 PUSH1 0x1 ADD PUSH1 0x0 SWAP1 SLOAD SWAP1 PUSH2 0x100 EXP SWAP1 DIV PUSH20 0xFFFFFFFFFFFFFFFFFFFFFFFFFFFFFFFFFFFFFFFF AND SWAP1 DUP1 PUSH1 0x2 ADD SLOAD SWAP1 DUP1 PUSH1 0x3 ADD SLOAD SWAP1 DUP1 PUSH1 0x4 ADD SLOAD SWAP1 DUP1 PUSH1 0x5 ADD SLOAD SWAP1 DUP1 PUSH1 0x6 ADD DUP1 SLOAD PUSH2 0x354 SWAP1 PUSH2 0x17C4 JUMP JUMPDEST DUP1 PUSH1 0x1F ADD PUSH1 0x20 DUP1 SWAP2 DIV MUL PUSH1 0x20 ADD PUSH1 0x40 MLOAD SWAP1 DUP2 ADD PUSH1 0x40 MSTORE DUP1 SWAP3 SWAP2 SWAP1 DUP2 DUP2 MSTORE PUSH1 0x20 ADD DUP3 DUP1 SLOAD PUSH2 0x380 SWAP1 PUSH2 0x17C4 JUMP JUMPDEST DUP1 ISZERO PUSH2 0x3CD JUMPI DUP1 PUSH1 0x1F LT PUSH2 0x3A2 JUMPI PUSH2 0x100 DUP1 DUP4 SLOAD DIV MUL DUP4 MSTORE SWAP2 PUSH1 0x20 ADD SWAP2 PUSH2 0x3CD JUMP JUMPDEST DUP3 ADD SWAP2 SWAP1 PUSH1 0x0 MSTORE PUSH1 0x20 PUSH1 0x0 KECCAK256 SWAP1 JUMPDEST DUP2 SLOAD DUP2 MSTORE SWAP1 PUSH1 0x1 ADD SWAP1 PUSH1 0x20 ADD DUP1 DUP4 GT PUSH2 0x3B0 JUMPI DUP3 SWAP1 SUB PUSH1 0x1F AND DUP3 ADD SWAP2 JUMPDEST POP POP POP POP POP SWAP1 DUP1 PUSH1 0x7 ADD PUSH1 0x0 SWAP1 SLOAD SWAP1 PUSH2 0x100 EXP SWAP1 DIV PUSH1 0xFF AND SWAP1 POP DUP9 JUMP JUMPDEST PUSH1 0x0 PUSH1 0x1 PUSH1 0x0 DUP4 DUP2 MSTORE PUSH1 0x20 ADD SWAP1 DUP2 MSTORE PUSH1 0x20 ADD PUSH1 0x0 KECCAK256 SWAP1 POP DUP1 PUSH1 0x1 ADD PUSH1 0x0 SWAP1 SLOAD SWAP1 PUSH2 0x100 EXP SWAP1 DIV PUSH20 0xFFFFFFFFFFFFFFFFFFFFFFFFFFFFFFFFFFFFFFFF AND PUSH20 0xFFFFFFFFFFFFFFFFFFFFFFFFFFFFFFFFFFFFFFFF AND CALLER PUSH20 0xFFFFFFFFFFFFFFFFFFFFFFFFFFFFFFFFFFFFFFFF AND EQ PUSH2 0x493 JUMPI PUSH1 0x40 MLOAD PUSH32 0x8C379A000000000000000000000000000000000000000000000000000000000 DUP2 MSTORE PUSH1 0x4 ADD PUSH2 0x48A SWAP1 PUSH2 0x1841 JUMP JUMPDEST PUSH1 0x40 MLOAD DUP1 SWAP2 SUB SWAP1 REVERT JUMPDEST PUSH1 0x1 DUP1 DUP2 GT ISZERO PUSH2 0x4A6 JUMPI PUSH2 0x4A5 PUSH2 0x13F0 JUMP JUMPDEST JUMPDEST DUP2 PUSH1 0x7 ADD PUSH1 0x0 SWAP1 SLOAD SWAP1 PUSH2 0x100 EXP SWAP1 DIV PUSH1 0xFF AND PUSH1 0x1 DUP2 GT ISZERO PUSH2 0x4CA JUMPI PUSH2 0x4C9 PUSH2 0x13F0 JUMP JUMPDEST JUMPDEST EQ PUSH2 0x50A JUMPI PUSH1 0x40 MLOAD PUSH32 0x8C379A000000000000000000000000000000000000000000000000000000000 DUP2 MSTORE PUSH1 0x4 ADD PUSH2 0x501 SWAP1 PUSH2 0x18AD JUMP JUMPDEST PUSH1 0x40 MLOAD DUP1 SWAP2 SUB SWAP1 REVERT JUMPDEST PUSH1 0x0 DUP2 PUSH1 0x4 ADD SLOAD GT PUSH2 0x551 JUMPI PUSH1 0x40 MLOAD PUSH32 0x8C379A000000000000000000000000000000000000000000000000000000000 DUP2 MSTORE PUSH1 0x4 ADD PUSH2 0x548 SWAP1 PUSH2 0x1919 JUMP JUMPDEST PUSH1 0x40 MLOAD DUP1 SWAP2 SUB SWAP1 REVERT JUMPDEST PUSH1 0x0 DUP2 PUSH1 0x4 ADD SLOAD SWAP1 POP PUSH1 0x0 PUSH2 0x3E8 PUSH1 0x19 DUP4 PUSH2 0x56C SWAP2 SWAP1 PUSH2 0x1968 JUMP JUMPDEST PUSH2 0x576 SWAP2 SWAP1 PUSH2 0x19D9 JUMP JUMPDEST SWAP1 POP PUSH1 0x0 DUP2 DUP4 PUSH2 0x586 SWAP2 SWAP1 PUSH2 0x1A0A JUMP JUMPDEST SWAP1 POP PUSH1 0x1 DUP5 PUSH1 0x7 ADD PUSH1 0x0 PUSH2 0x100 EXP DUP2 SLOAD DUP2 PUSH1 0xFF MUL NOT AND SWAP1 DUP4 PUSH1 0x1 DUP2 GT ISZERO PUSH2 0x5B0 JUMPI PUSH2 0x5AF PUSH2 0x13F0 JUMP JUMPDEST JUMPDEST MUL OR SWAP1 SSTORE POP DUP2 PUSH1 0x3 PUSH1 0x0 DUP8 DUP2 MSTORE PUSH1 0x20 ADD SWAP1 DUP2 MSTORE PUSH1 0x20 ADD PUSH1 0x0 KECCAK256 DUP2 SWAP1 SSTORE POP PUSH1 0x0 DUP5 PUSH1 0x1 ADD PUSH1 0x0 SWAP1 SLOAD SWAP1 PUSH2 0x100 EXP SWAP1 DIV PUSH20 0xFFFFFFFFFFFFFFFFFFFFFFFFFFFFFFFFFFFFFFFF AND PUSH20 0xFFFFFFFFFFFFFFFFFFFFFFFFFFFFFFFFFFFFFFFF AND DUP3 PUSH1 0x40 MLOAD PUSH2 0x617 SWAP1 PUSH2 0x1A6F JUMP JUMPDEST PUSH1 0x0 PUSH1 0x40 MLOAD DUP1 DUP4 SUB DUP2 DUP6 DUP8 GAS CALL SWAP3 POP POP POP RETURNDATASIZE DUP1 PUSH1 0x0 DUP2 EQ PUSH2 0x654 JUMPI PUSH1 0x40 MLOAD SWAP2 POP PUSH1 0x1F NOT PUSH1 0x3F RETURNDATASIZE ADD AND DUP3 ADD PUSH1 0x40 MSTORE RETURNDATASIZE DUP3 MSTORE RETURNDATASIZE PUSH1 0x0 PUSH1 0x20 DUP5 ADD RETURNDATACOPY PUSH2 0x659 JUMP JUMPDEST PUSH1 0x60 SWAP2 POP JUMPDEST POP POP SWAP1 POP DUP1 PUSH2 0x69D JUMPI PUSH1 0x40 MLOAD PUSH32 0x8C379A000000000000000000000000000000000000000000000000000000000 DUP2 MSTORE PUSH1 0x4 ADD PUSH2 0x694 SWAP1 PUSH2 0x1AD0 JUMP JUMPDEST PUSH1 0x40 MLOAD DUP1 SWAP2 SUB SWAP1 REVERT JUMPDEST CALLER PUSH20 0xFFFFFFFFFFFFFFFFFFFFFFFFFFFFFFFFFFFFFFFF AND DUP7 PUSH32 0xF440AEC6B52895984D061D622E6EDEBA6210F7C3E059BE920663140C084560D7 DUP5 PUSH1 0x40 MLOAD PUSH2 0x6E4 SWAP2 SWAP1 PUSH2 0x156A JUMP JUMPDEST PUSH1 0x40 MLOAD DUP1 SWAP2 SUB SWAP1 LOG3 POP POP POP POP POP POP JUMP JUMPDEST PUSH1 0x2 PUSH1 0x20 MSTORE DUP2 PUSH1 0x0 MSTORE PUSH1 0x40 PUSH1 0x0 KECCAK256 PUSH1 0x20 MSTORE DUP1 PUSH1 0x0 MSTORE PUSH1 0x40 PUSH1 0x0 KECCAK256 PUSH1 0x0 SWAP2 POP SWAP2 POP POP SLOAD DUP2 JUMP JUMPDEST PUSH1 0x3 PUSH1 0x20 MSTORE DUP1 PUSH1 0x0 MSTORE PUSH1 0x40 PUSH1 0x0 KECCAK256 PUSH1 0x0 SWAP2 POP SWAP1 POP SLOAD DUP2 JUMP JUMPDEST PUSH1 0x0 PUSH1 0x1 PUSH1 0x0 DUP8 DUP2 MSTORE PUSH1 0x20 ADD SWAP1 DUP2 MSTORE PUSH1 0x20 ADD PUSH1 0x0 KECCAK256 SWAP1 POP DUP1 PUSH1 0x1 ADD PUSH1 0x0 SWAP1 SLOAD SWAP1 PUSH2 0x100 EXP SWAP1 DIV PUSH20 0xFFFFFFFFFFFFFFFFFFFFFFFFFFFFFFFFFFFFFFFF AND PUSH20 0xFFFFFFFFFFFFFFFFFFFFFFFFFFFFFFFFFFFFFFFF AND CALLER PUSH20 0xFFFFFFFFFFFFFFFFFFFFFFFFFFFFFFFFFFFFFFFF AND EQ PUSH2 0x7DA JUMPI PUSH1 0x40 MLOAD PUSH32 0x8C379A000000000000000000000000000000000000000000000000000000000 DUP2 MSTORE PUSH1 0x4 ADD PUSH2 0x7D1 SWAP1 PUSH2 0x1B62 JUMP JUMPDEST PUSH1 0x40 MLOAD DUP1 SWAP2 SUB SWAP1 REVERT JUMPDEST PUSH1 0x0 PUSH1 0x1 DUP2 GT ISZERO PUSH2 0x7EE JUMPI PUSH2 0x7ED PUSH2 0x13F0 JUMP JUMPDEST JUMPDEST DUP2 PUSH1 0x7 ADD PUSH1 0x0 SWAP1 SLOAD SWAP1 PUSH2 0x100 EXP SWAP1 DIV PUSH1 0xFF AND PUSH1 0x1 DUP2 GT ISZERO PUSH2 0x812 JUMPI PUSH2 0x811 PUSH2 0x13F0 JUMP JUMPDEST JUMPDEST EQ PUSH2 0x852 JUMPI PUSH1 0x40 MLOAD PUSH32 0x8C379A000000000000000000000000000000000000000000000000000000000 DUP2 MSTORE PUSH1 0x4 ADD PUSH2 0x849 SWAP1 PUSH2 0x1BCE JUMP JUMPDEST PUSH1 0x40 MLOAD DUP1 SWAP2 SUB SWAP1 REVERT JUMPDEST TIMESTAMP DUP5 GT PUSH2 0x894 JUMPI PUSH1 0x40 MLOAD PUSH32 0x8C379A000000000000000000000000000000000000000000000000000000000 DUP2 MSTORE PUSH1 0x4 ADD PUSH2 0x88B SWAP1 PUSH2 0x1C60 JUMP JUMPDEST PUSH1 0x40 MLOAD DUP1 SWAP2 SUB SWAP1 REVERT JUMPDEST DUP1 PUSH1 0x4 ADD SLOAD DUP6 GT PUSH2 0x8DA JUMPI PUSH1 0x40 MLOAD PUSH32 0x8C379A000000000000000000000000000000000000000000000000000000000 DUP2 MSTORE PUSH1 0x4 ADD PUSH2 0x8D1 SWAP1 PUSH2 0x1CF2 JUMP JUMPDEST PUSH1 0x40 MLOAD DUP1 SWAP2 SUB SWAP1 REVERT JUMPDEST DUP5 DUP2 PUSH1 0x2 ADD DUP2 SWAP1 SSTORE POP DUP4 DUP2 PUSH1 0x3 ADD DUP2 SWAP1 SSTORE POP DUP3 DUP3 DUP3 PUSH1 0x6 ADD SWAP2 DUP3 PUSH2 0x8FF SWAP3 SWAP2 SWAP1 PUSH2 0x1EF8 JUMP JUMPDEST POP DUP6 PUSH32 0xE8455E3A730598AEB3288EA71DB44DEBB4AF47B4D6AB68543DC5E9F22096F249 DUP7 DUP7 DUP7 DUP7 PUSH1 0x40 MLOAD PUSH2 0x936 SWAP5 SWAP4 SWAP3 SWAP2 SWAP1 PUSH2 0x2004 JUMP JUMPDEST PUSH1 0x40 MLOAD DUP1 SWAP2 SUB SWAP1 LOG2 POP POP POP POP POP POP JUMP JUMPDEST PUSH1 0x0 DUP1 PUSH1 0x0 DUP1 PUSH1 0x0 DUP1 PUSH1 0x60 PUSH1 0x0 DUP1 PUSH1 0x1 PUSH1 0x0 DUP12 DUP2 MSTORE PUSH1 0x20 ADD SWAP1 DUP2 MSTORE PUSH1 0x20 ADD PUSH1 0x0 KECCAK256 SWAP1 POP DUP1 PUSH1 0x0 ADD SLOAD DUP2 PUSH1 0x1 ADD PUSH1 0x0 SWAP1 SLOAD SWAP1 PUSH2 0x100 EXP SWAP1 DIV PUSH20 0xFFFFFFFFFFFFFFFFFFFFFFFFFFFFFFFFFFFFFFFF AND DUP3 PUSH1 0x2 ADD SLOAD DUP4 PUSH1 0x3 ADD SLOAD DUP5 PUSH1 0x4 ADD SLOAD DUP6 PUSH1 0x5 ADD SLOAD DUP7 PUSH1 0x6 ADD DUP8 PUSH1 0x7 ADD PUSH1 0x0 SWAP1 SLOAD SWAP1 PUSH2 0x100 EXP SWAP1 DIV PUSH1 0xFF AND DUP2 DUP1 SLOAD PUSH2 0x9C9 SWAP1 PUSH2 0x17C4 JUMP JUMPDEST DUP1 PUSH1 0x1F ADD PUSH1 0x20 DUP1 SWAP2 DIV MUL PUSH1 0x20 ADD PUSH1 0x40 MLOAD SWAP1 DUP2 ADD PUSH1 0x40 MSTORE DUP1 SWAP3 SWAP2 SWAP1 DUP2 DUP2 MSTORE PUSH1 0x20 ADD DUP3 DUP1 SLOAD PUSH2 0x9F5 SWAP1 PUSH2 0x17C4 JUMP JUMPDEST DUP1 ISZERO PUSH2 0xA42 JUMPI DUP1 PUSH1 0x1F LT PUSH2 0xA17 JUMPI PUSH2 0x100 DUP1 DUP4 SLOAD DIV MUL DUP4 MSTORE SWAP2 PUSH1 0x20 ADD SWAP2 PUSH2 0xA42 JUMP JUMPDEST DUP3 ADD SWAP2 SWAP1 PUSH1 0x0 MSTORE PUSH1 0x20 PUSH1 0x0 KECCAK256 SWAP1 JUMPDEST DUP2 SLOAD DUP2 MSTORE SWAP1 PUSH1 0x1 ADD SWAP1 PUSH1 0x20 ADD DUP1 DUP4 GT PUSH2 0xA25 JUMPI DUP3 SWAP1 SUB PUSH1 0x1F AND DUP3 ADD SWAP2 JUMPDEST POP POP POP POP POP SWAP2 POP SWAP9 POP SWAP9 POP SWAP9 POP SWAP9 POP SWAP9 POP SWAP9 POP SWAP9 POP SWAP9 POP POP SWAP2 SWAP4 SWAP6 SWAP8 POP SWAP2 SWAP4 SWAP6 SWAP8 JUMP JUMPDEST PUSH1 0x0 DUP1 SLOAD SWAP1 POP SWAP1 JUMP JUMPDEST TIMESTAMP DUP4 GT PUSH2 0xAB0 JUMPI PUSH1 0x40 MLOAD PUSH32 0x8C379A000000000000000000000000000000000000000000000000000000000 DUP2 MSTORE PUSH1 0x4 ADD PUSH2 0xAA7 SWAP1 PUSH2 0x2090 JUMP JUMPDEST PUSH1 0x40 MLOAD DUP1 SWAP2 SUB SWAP1 REVERT JUMPDEST PUSH1 0x0 DUP5 GT PUSH2 0xAF3 JUMPI PUSH1 0x40 MLOAD PUSH32 0x8C379A000000000000000000000000000000000000000000000000000000000 DUP2 MSTORE PUSH1 0x4 ADD PUSH2 0xAEA SWAP1 PUSH2 0x20FC JUMP JUMPDEST PUSH1 0x40 MLOAD DUP1 SWAP2 SUB SWAP1 REVERT JUMPDEST PUSH1 0x1 PUSH1 0x0 DUP1 DUP3 DUP3 SLOAD PUSH2 0xB05 SWAP2 SWAP1 PUSH2 0x211C JUMP JUMPDEST SWAP3 POP POP DUP2 SWAP1 SSTORE POP PUSH1 0x40 MLOAD DUP1 PUSH2 0x100 ADD PUSH1 0x40 MSTORE DUP1 PUSH1 0x0 SLOAD DUP2 MSTORE PUSH1 0x20 ADD CALLER PUSH20 0xFFFFFFFFFFFFFFFFFFFFFFFFFFFFFFFFFFFFFFFF AND DUP2 MSTORE PUSH1 0x20 ADD DUP6 DUP2 MSTORE PUSH1 0x20 ADD DUP5 DUP2 MSTORE PUSH1 0x20 ADD PUSH1 0x0 DUP2 MSTORE PUSH1 0x20 ADD PUSH1 0x0 DUP2 MSTORE PUSH1 0x20 ADD DUP4 DUP4 DUP1 DUP1 PUSH1 0x1F ADD PUSH1 0x20 DUP1 SWAP2 DIV MUL PUSH1 0x20 ADD PUSH1 0x40 MLOAD SWAP1 DUP2 ADD PUSH1 0x40 MSTORE DUP1 SWAP4 SWAP3 SWAP2 SWAP1 DUP2 DUP2 MSTORE PUSH1 0x20 ADD DUP4 DUP4 DUP1 DUP3 DUP5 CALLDATACOPY PUSH1 0x0 DUP2 DUP5 ADD MSTORE PUSH1 0x1F NOT PUSH1 0x1F DUP3 ADD AND SWAP1 POP DUP1 DUP4 ADD SWAP3 POP POP POP POP POP POP POP DUP2 MSTORE PUSH1 0x20 ADD PUSH1 0x0 PUSH1 0x1 DUP2 GT ISZERO PUSH2 0xBB4 JUMPI PUSH2 0xBB3 PUSH2 0x13F0 JUMP JUMPDEST JUMPDEST DUP2 MSTORE POP PUSH1 0x1 PUSH1 0x0 DUP1 SLOAD DUP2 MSTORE PUSH1 0x20 ADD SWAP1 DUP2 MSTORE PUSH1 0x20 ADD PUSH1 0x0 KECCAK256 PUSH1 0x0 DUP3 ADD MLOAD DUP2 PUSH1 0x0 ADD SSTORE PUSH1 0x20 DUP3 ADD MLOAD DUP2 PUSH1 0x1 ADD PUSH1 0x0 PUSH2 0x100 EXP DUP2 SLOAD DUP2 PUSH20 0xFFFFFFFFFFFFFFFFFFFFFFFFFFFFFFFFFFFFFFFF MUL NOT AND SWAP1 DUP4 PUSH20 0xFFFFFFFFFFFFFFFFFFFFFFFFFFFFFFFFFFFFFFFF AND MUL OR SWAP1 SSTORE POP PUSH1 0x40 DUP3 ADD MLOAD DUP2 PUSH1 0x2 ADD SSTORE PUSH1 0x60 DUP3 ADD MLOAD DUP2 PUSH1 0x3 ADD SSTORE PUSH1 0x80 DUP3 ADD MLOAD DUP2 PUSH1 0x4 ADD SSTORE PUSH1 0xA0 DUP3 ADD MLOAD DUP2 PUSH1 0x5 ADD SSTORE PUSH1 0xC0 DUP3 ADD MLOAD DUP2 PUSH1 0x6 ADD SWAP1 DUP2 PUSH2 0xC59 SWAP2 SWAP1 PUSH2 0x2150 JUMP JUMPDEST POP PUSH1 0xE0 DUP3 ADD MLOAD DUP2 PUSH1 0x7 ADD PUSH1 0x0 PUSH2 0x100 EXP DUP2 SLOAD DUP2 PUSH1 0xFF MUL NOT AND SWAP1 DUP4 PUSH1 0x1 DUP2 GT ISZERO PUSH2 0xC85 JUMPI PUSH2 0xC84 PUSH2 0x13F0 JUMP JUMPDEST JUMPDEST MUL OR SWAP1 SSTORE POP SWAP1 POP POP CALLER PUSH20 0xFFFFFFFFFFFFFFFFFFFFFFFFFFFFFFFFFFFFFFFF AND PUSH1 0x0 SLOAD PUSH32 0x2E64DA7E06E88CCD84D69ECCB21119CA81E40E5648611E89EDFE888C8FA62597 DUP7 DUP7 DUP7 DUP7 PUSH1 0x40 MLOAD PUSH2 0xCDC SWAP5 SWAP4 SWAP3 SWAP2 SWAP1 PUSH2 0x2004 JUMP JUMPDEST PUSH1 0x40 MLOAD DUP1 SWAP2 SUB SWAP1 LOG3 POP POP POP POP JUMP JUMPDEST PUSH1 0x0 PUSH1 0x1 PUSH1 0x0 DUP4 DUP2 MSTORE PUSH1 0x20 ADD SWAP1 DUP2 MSTORE PUSH1 0x20 ADD PUSH1 0x0 KECCAK256 SWAP1 POP DUP1 PUSH1 0x1 ADD PUSH1 0x0 SWAP1 SLOAD SWAP1 PUSH2 0x100 EXP SWAP1 DIV PUSH20 0xFFFFFFFFFFFFFFFFFFFFFFFFFFFFFFFFFFFFFFFF AND PUSH20 0xFFFFFFFFFFFFFFFFFFFFFFFFFFFFFFFFFFFFFFFF AND CALLER PUSH20 0xFFFFFFFFFFFFFFFFFFFFFFFFFFFFFFFFFFFFFFFF AND EQ PUSH2 0xD93 JUMPI PUSH1 0x40 MLOAD PUSH32 0x8C379A000000000000000000000000000000000000000000000000000000000 DUP2 MSTORE PUSH1 0x4 ADD PUSH2 0xD8A SWAP1 PUSH2 0x226E JUMP JUMPDEST PUSH1 0x40 MLOAD DUP1 SWAP2 SUB SWAP1 REVERT JUMPDEST PUSH1 0x0 PUSH1 0x1 DUP2 GT ISZERO PUSH2 0xDA7 JUMPI PUSH2 0xDA6 PUSH2 0x13F0 JUMP JUMPDEST JUMPDEST DUP2 PUSH1 0x7 ADD PUSH1 0x0 SWAP1 SLOAD SWAP1 PUSH2 0x100 EXP SWAP1 DIV PUSH1 0xFF AND PUSH1 0x1 DUP2 GT ISZERO PUSH2 0xDCB JUMPI PUSH2 0xDCA PUSH2 0x13F0 JUMP JUMPDEST JUMPDEST EQ PUSH2 0xE0B JUMPI PUSH1 0x40 MLOAD PUSH32 0x8C379A000000000000000000000000000000000000000000000000000000000 DUP2 MSTORE PUSH1 0x4 ADD PUSH2 0xE02 SWAP1 PUSH2 0x22DA JUMP JUMPDEST PUSH1 0x40 MLOAD DUP1 SWAP2 SUB SWAP1 REVERT JUMPDEST PUSH1 0x1 DUP2 PUSH1 0x7 ADD PUSH1 0x0 PUSH2 0x100 EXP DUP2 SLOAD DUP2 PUSH1 0xFF MUL NOT AND SWAP1 DUP4 PUSH1 0x1 DUP2 GT ISZERO PUSH2 0xE33 JUMPI PUSH2 0xE32 PUSH2 0x13F0 JUMP JUMPDEST JUMPDEST MUL OR SWAP1 SSTORE POP CALLER PUSH20 0xFFFFFFFFFFFFFFFFFFFFFFFFFFFFFFFFFFFFFFFF AND DUP3 PUSH32 0xA78AF03F83BE4496E7F3344865E5D4A44FA8ED036BA56CABD413E1882B92A79F PUSH1 0x40 MLOAD PUSH1 0x40 MLOAD DUP1 SWAP2 SUB SWAP1 LOG3 POP POP JUMP JUMPDEST PUSH1 0x0 PUSH1 0x3 PUSH1 0x0 DUP4 DUP2 MSTORE PUSH1 0x20 ADD SWAP1 DUP2 MSTORE PUSH1 0x20 ADD PUSH1 0x0 KECCAK256 SLOAD SWAP1 POP PUSH1 0x0 DUP2 GT PUSH2 0xEDB JUMPI PUSH1 0x40 MLOAD PUSH32 0x8C379A000000000000000000000000000000000000000000000000000000000 DUP2 MSTORE PUSH1 0x4 ADD PUSH2 0xED2 SWAP1 PUSH2 0x2346 JUMP JUMPDEST PUSH1 0x40 MLOAD DUP1 SWAP2 SUB SWAP1 REVERT JUMPDEST PUSH1 0x0 PUSH1 0x3 PUSH1 0x0 DUP5 DUP2 MSTORE PUSH1 0x20 ADD SWAP1 DUP2 MSTORE PUSH1 0x20 ADD PUSH1 0x0 KECCAK256 DUP2 SWAP1 SSTORE POP PUSH1 0x0 PUSH1 0x4 PUSH1 0x0 SWAP1 SLOAD SWAP1 PUSH2 0x100 EXP SWAP1 DIV PUSH20 0xFFFFFFFFFFFFFFFFFFFFFFFFFFFFFFFFFFFFFFFF AND PUSH20 0xFFFFFFFFFFFFFFFFFFFFFFFFFFFFFFFFFFFFFFFF AND DUP3 PUSH1 0x40 MLOAD PUSH2 0xF3C SWAP1 PUSH2 0x1A6F JUMP JUMPDEST PUSH1 0x0 PUSH1 0x40 MLOAD DUP1 DUP4 SUB DUP2 DUP6 DUP8 GAS CALL SWAP3 POP POP POP RETURNDATASIZE DUP1 PUSH1 0x0 DUP2 EQ PUSH2 0xF79 JUMPI PUSH1 0x40 MLOAD SWAP2 POP PUSH1 0x1F NOT PUSH1 0x3F RETURNDATASIZE ADD AND DUP3 ADD PUSH1 0x40 MSTORE RETURNDATASIZE DUP3 MSTORE RETURNDATASIZE PUSH1 0x0 PUSH1 0x20 DUP5 ADD RETURNDATACOPY PUSH2 0xF7E JUMP JUMPDEST PUSH1 0x60 SWAP2 POP JUMPDEST POP POP SWAP1 POP DUP1 PUSH2 0xFC2 JUMPI PUSH1 0x40 MLOAD PUSH32 0x8C379A000000000000000000000000000000000000000000000000000000000 DUP2 MSTORE PUSH1 0x4 ADD PUSH2 0xFB9 SWAP1 PUSH2 0x23B2 JUMP JUMPDEST PUSH1 0x40 MLOAD DUP1 SWAP2 SUB SWAP1 REVERT JUMPDEST DUP3 PUSH32 0x49D512BF9CB224241C05691E73EB9FAB078CF350C7DBCBCF66788F1FC0CC8B0B DUP4 PUSH1 0x40 MLOAD PUSH2 0xFF2 SWAP2 SWAP1 PUSH2 0x156A JUMP JUMPDEST PUSH1 0x40 MLOAD DUP1 SWAP2 SUB SWAP1 LOG2 POP POP POP JUMP JUMPDEST PUSH1 0x4 PUSH1 0x0 SWAP1 SLOAD SWAP1 PUSH2 0x100 EXP SWAP1 DIV PUSH20 0xFFFFFFFFFFFFFFFFFFFFFFFFFFFFFFFFFFFFFFFF AND DUP2 JUMP JUMPDEST PUSH1 0x0 PUSH1 0x1 PUSH1 0x0 DUP4 DUP2 MSTORE PUSH1 0x20 ADD SWAP1 DUP2 MSTORE PUSH1 0x20 ADD PUSH1 0x0 KECCAK256 SWAP1 POP PUSH1 0x1 DUP1 DUP2 GT ISZERO PUSH2 0x104F JUMPI PUSH2 0x104E PUSH2 0x13F0 JUMP JUMPDEST JUMPDEST DUP2 PUSH1 0x7 ADD PUSH1 0x0 SWAP1 SLOAD SWAP1 PUSH2 0x100 EXP SWAP1 DIV PUSH1 0xFF AND PUSH1 0x1 DUP2 GT ISZERO PUSH2 0x1073 JUMPI PUSH2 0x1072 PUSH2 0x13F0 JUMP JUMPDEST JUMPDEST SUB PUSH2 0x10B3 JUMPI PUSH1 0x40 MLOAD PUSH32 0x8C379A000000000000000000000000000000000000000000000000000000000 DUP2 MSTORE PUSH1 0x4 ADD PUSH2 0x10AA SWAP1 PUSH2 0x241E JUMP JUMPDEST PUSH1 0x40 MLOAD DUP1 SWAP2 SUB SWAP1 REVERT JUMPDEST DUP1 PUSH1 0x3 ADD SLOAD TIMESTAMP LT PUSH2 0x10F9 JUMPI PUSH1 0x40 MLOAD PUSH32 0x8C379A000000000000000000000000000000000000000000000000000000000 DUP2 MSTORE PUSH1 0x4 ADD PUSH2 0x10F0 SWAP1 PUSH2 0x248A JUMP JUMPDEST PUSH1 0x40 MLOAD DUP1 SWAP2 SUB SWAP1 REVERT JUMPDEST PUSH1 0x0 CALLVALUE GT PUSH2 0x113C JUMPI PUSH1 0x40 MLOAD PUSH32 0x8C379A000000000000000000000000000000000000000000000000000000000 DUP2 MSTORE PUSH1 0x4 ADD PUSH2 0x1133 SWAP1 PUSH2 0x24F6 JUMP JUMPDEST PUSH1 0x40 MLOAD DUP1 SWAP2 SUB SWAP1 REVERT JUMPDEST DUP1 PUSH1 0x1 ADD PUSH1 0x0 SWAP1 SLOAD SWAP1 PUSH2 0x100 EXP SWAP1 DIV PUSH20 0xFFFFFFFFFFFFFFFFFFFFFFFFFFFFFFFFFFFFFFFF AND PUSH20 0xFFFFFFFFFFFFFFFFFFFFFFFFFFFFFFFFFFFFFFFF AND CALLER PUSH20 0xFFFFFFFFFFFFFFFFFFFFFFFFFFFFFFFFFFFFFFFF AND SUB PUSH2 0x11CE JUMPI PUSH1 0x40 MLOAD PUSH32 0x8C379A000000000000000000000000000000000000000000000000000000000 DUP2 MSTORE PUSH1 0x4 ADD PUSH2 0x11C5 SWAP1 PUSH2 0x2588 JUMP JUMPDEST PUSH1 0x40 MLOAD DUP1 SWAP2 SUB SWAP1 REVERT JUMPDEST CALLVALUE DUP2 PUSH1 0x4 ADD PUSH1 0x0 DUP3 DUP3 SLOAD PUSH2 0x11E2 SWAP2 SWAP1 PUSH2 0x211C JUMP JUMPDEST SWAP3 POP POP DUP2 SWAP1 SSTORE POP CALLVALUE PUSH1 0x2 PUSH1 0x0 DUP5 DUP2 MSTORE PUSH1 0x20 ADD SWAP1 DUP2 MSTORE PUSH1 0x20 ADD PUSH1 0x0 KECCAK256 PUSH1 0x0 CALLER PUSH20 0xFFFFFFFFFFFFFFFFFFFFFFFFFFFFFFFFFFFFFFFF AND PUSH20 0xFFFFFFFFFFFFFFFFFFFFFFFFFFFFFFFFFFFFFFFF AND DUP2 MSTORE PUSH1 0x20 ADD SWAP1 DUP2 MSTORE PUSH1 0x20 ADD PUSH1 0x0 KECCAK256 PUSH1 0x0 DUP3 DUP3 SLOAD PUSH2 0x1249 SWAP2 SWAP1 PUSH2 0x211C JUMP JUMPDEST SWAP3 POP POP DUP2 SWAP1 SSTORE POP CALLER PUSH20 0xFFFFFFFFFFFFFFFFFFFFFFFFFFFFFFFFFFFFFFFF AND DUP3 PUSH32 0xA4A91237423E0A1766A761C7CB029311D8B95D6B1B81DB1B949A70C98B4E08E CALLVALUE PUSH1 0x40 MLOAD PUSH2 0x1297 SWAP2 SWAP1 PUSH2 0x156A JUMP JUMPDEST PUSH1 0x40 MLOAD DUP1 SWAP2 SUB SWAP1 LOG3 POP POP JUMP JUMPDEST PUSH1 0x0 DUP1 REVERT JUMPDEST PUSH1 0x0 DUP1 REVERT JUMPDEST PUSH1 0x0 DUP2 SWAP1 POP SWAP2 SWAP1 POP JUMP JUMPDEST PUSH2 0x12C0 DUP2 PUSH2 0x12AD JUMP JUMPDEST DUP2 EQ PUSH2 0x12CB JUMPI PUSH1 0x0 DUP1 REVERT JUMPDEST POP JUMP JUMPDEST PUSH1 0x0 DUP2 CALLDATALOAD SWAP1 POP PUSH2 0x12DD DUP2 PUSH2 0x12B7 JUMP JUMPDEST SWAP3 SWAP2 POP POP JUMP JUMPDEST PUSH1 0x0 PUSH1 0x20 DUP3 DUP5 SUB SLT ISZERO PUSH2 0x12F9 JUMPI PUSH2 0x12F8 PUSH2 0x12A3 JUMP JUMPDEST JUMPDEST PUSH1 0x0 PUSH2 0x1307 DUP5 DUP3 DUP6 ADD PUSH2 0x12CE JUMP JUMPDEST SWAP2 POP POP SWAP3 SWAP2 POP POP JUMP JUMPDEST PUSH2 0x1319 DUP2 PUSH2 0x12AD JUMP JUMPDEST DUP3 MSTORE POP POP JUMP JUMPDEST PUSH1 0x0 PUSH20 0xFFFFFFFFFFFFFFFFFFFFFFFFFFFFFFFFFFFFFFFF DUP3 AND SWAP1 POP SWAP2 SWAP1 POP JUMP JUMPDEST PUSH1 0x0 PUSH2 0x134A DUP3 PUSH2 0x131F JUMP JUMPDEST SWAP1 POP SWAP2 SWAP1 POP JUMP JUMPDEST PUSH2 0x135A DUP2 PUSH2 0x133F JUMP JUMPDEST DUP3 MSTORE POP POP JUMP JUMPDEST PUSH1 0x0 DUP2 MLOAD SWAP1 POP SWAP2 SWAP1 POP JUMP JUMPDEST PUSH1 0x0 DUP3 DUP3 MSTORE PUSH1 0x20 DUP3 ADD SWAP1 POP SWAP3 SWAP2 POP POP JUMP JUMPDEST PUSH1 0x0 JUMPDEST DUP4 DUP2 LT ISZERO PUSH2 0x139A JUMPI DUP1 DUP3 ADD MLOAD DUP2 DUP5 ADD MSTORE PUSH1 0x20 DUP2 ADD SWAP1 POP PUSH2 0x137F JUMP JUMPDEST PUSH1 0x0 DUP5 DUP5 ADD MSTORE POP POP POP POP JUMP JUMPDEST PUSH1 0x0 PUSH1 0x1F NOT PUSH1 0x1F DUP4 ADD AND SWAP1 POP SWAP2 SWAP1 POP JUMP JUMPDEST PUSH1 0x0 PUSH2 0x13C2 DUP3 PUSH2 0x1360 JUMP JUMPDEST PUSH2 0x13CC DUP2 DUP6 PUSH2 0x136B JUMP JUMPDEST SWAP4 POP PUSH2 0x13DC DUP2 DUP6 PUSH1 0x20 DUP7 ADD PUSH2 0x137C JUMP JUMPDEST PUSH2 0x13E5 DUP2 PUSH2 0x13A6 JUMP JUMPDEST DUP5 ADD SWAP2 POP POP SWAP3 SWAP2 POP POP JUMP JUMPDEST PUSH32 0x4E487B7100000000000000000000000000000000000000000000000000000000 PUSH1 0x0 MSTORE PUSH1 0x21 PUSH1 0x4 MSTORE PUSH1 0x24 PUSH1 0x0 REVERT JUMPDEST PUSH1 0x2 DUP2 LT PUSH2 0x1430 JUMPI PUSH2 0x142F PUSH2 0x13F0 JUMP JUMPDEST JUMPDEST POP JUMP JUMPDEST PUSH1 0x0 DUP2 SWAP1 POP PUSH2 0x1441 DUP3 PUSH2 0x141F JUMP JUMPDEST SWAP2 SWAP1 POP JUMP JUMPDEST PUSH1 0x0 PUSH2 0x1451 DUP3 PUSH2 0x1433 JUMP JUMPDEST SWAP1 POP SWAP2 SWAP1 POP JUMP JUMPDEST PUSH2 0x1461 DUP2 PUSH2 0x1446 JUMP JUMPDEST DUP3 MSTORE POP POP JUMP JUMPDEST PUSH1 0x0 PUSH2 0x100 DUP3 ADD SWAP1 POP PUSH2 0x147D PUSH1 0x0 DUP4 ADD DUP12 PUSH2 0x1310 JUMP JUMPDEST PUSH2 0x148A PUSH1 0x20 DUP4 ADD DUP11 PUSH2 0x1351 JUMP JUMPDEST PUSH2 0x1497 PUSH1 0x40 DUP4 ADD DUP10 PUSH2 0x1310 JUMP JUMPDEST PUSH2 0x14A4 PUSH1 0x60 DUP4 ADD DUP9 PUSH2 0x1310 JUMP JUMPDEST PUSH2 0x14B1 PUSH1 0x80 DUP4 ADD DUP8 PUSH2 0x1310 JUMP JUMPDEST PUSH2 0x14BE PUSH1 0xA0 DUP4 ADD DUP7 PUSH2 0x1310 JUMP JUMPDEST DUP2 DUP2 SUB PUSH1 0xC0 DUP4 ADD MSTORE PUSH2 0x14D0 DUP2 DUP6 PUSH2 0x13B7 JUMP JUMPDEST SWAP1 POP PUSH2 0x14DF PUSH1 0xE0 DUP4 ADD DUP5 PUSH2 0x1458 JUMP JUMPDEST SWAP10 SWAP9 POP POP POP POP POP POP POP POP POP JUMP JUMPDEST PUSH1 0x0 PUSH2 0x14F7 DUP3 PUSH2 0x131F JUMP JUMPDEST SWAP1 POP SWAP2 SWAP1 POP JUMP JUMPDEST PUSH2 0x1507 DUP2 PUSH2 0x14EC JUMP JUMPDEST DUP2 EQ PUSH2 0x1512 JUMPI PUSH1 0x0 DUP1 REVERT JUMPDEST POP JUMP JUMPDEST PUSH1 0x0 DUP2 CALLDATALOAD SWAP1 POP PUSH2 0x1524 DUP2 PUSH2 0x14FE JUMP JUMPDEST SWAP3 SWAP2 POP POP JUMP JUMPDEST PUSH1 0x0 DUP1 PUSH1 0x40 DUP4 DUP6 SUB SLT ISZERO PUSH2 0x1541 JUMPI PUSH2 0x1540 PUSH2 0x12A3 JUMP JUMPDEST JUMPDEST PUSH1 0x0 PUSH2 0x154F DUP6 DUP3 DUP7 ADD PUSH2 0x12CE JUMP JUMPDEST SWAP3 POP POP PUSH1 0x20 PUSH2 0x1560 DUP6 DUP3 DUP7 ADD PUSH2 0x1515 JUMP JUMPDEST SWAP2 POP POP SWAP3 POP SWAP3 SWAP1 POP JUMP JUMPDEST PUSH1 0x0 PUSH1 0x20 DUP3 ADD SWAP1 POP PUSH2 0x157F PUSH1 0x0 DUP4 ADD DUP5 PUSH2 0x1310 JUMP JUMPDEST SWAP3 SWAP2 POP POP JUMP JUMPDEST PUSH1 0x0 DUP1 REVERT JUMPDEST PUSH1 0x0 DUP1 REVERT JUMPDEST PUSH1 0x0 DUP1 REVERT JUMPDEST PUSH1 0x0 DUP1 DUP4 PUSH1 0x1F DUP5 ADD SLT PUSH2 0x15AA JUMPI PUSH2 0x15A9 PUSH2 0x1585 JUMP JUMPDEST JUMPDEST DUP3 CALLDATALOAD SWAP1 POP PUSH8 0xFFFFFFFFFFFFFFFF DUP2 GT ISZERO PUSH2 0x15C7 JUMPI PUSH2 0x15C6 PUSH2 0x158A JUMP JUMPDEST JUMPDEST PUSH1 0x20 DUP4 ADD SWAP2 POP DUP4 PUSH1 0x1 DUP3 MUL DUP4 ADD GT ISZERO PUSH2 0x15E3 JUMPI PUSH2 0x15E2 PUSH2 0x158F JUMP JUMPDEST JUMPDEST SWAP3 POP SWAP3 SWAP1 POP JUMP JUMPDEST PUSH1 0x0 DUP1 PUSH1 0x0 DUP1 PUSH1 0x0 PUSH1 0x80 DUP7 DUP9 SUB SLT ISZERO PUSH2 0x1606 JUMPI PUSH2 0x1605 PUSH2 0x12A3 JUMP JUMPDEST JUMPDEST PUSH1 0x0 PUSH2 0x1614 DUP9 DUP3 DUP10 ADD PUSH2 0x12CE JUMP JUMPDEST SWAP6 POP POP PUSH1 0x20 PUSH2 0x1625 DUP9 DUP3 DUP10 ADD PUSH2 0x12CE JUMP JUMPDEST SWAP5 POP POP PUSH1 0x40 PUSH2 0x1636 DUP9 DUP3 DUP10 ADD PUSH2 0x12CE JUMP JUMPDEST SWAP4 POP POP PUSH1 0x60 DUP7 ADD CALLDATALOAD PUSH8 0xFFFFFFFFFFFFFFFF DUP2 GT ISZERO PUSH2 0x1657 JUMPI PUSH2 0x1656 PUSH2 0x12A8 JUMP JUMPDEST JUMPDEST PUSH2 0x1663 DUP9 DUP3 DUP10 ADD PUSH2 0x1594 JUMP JUMPDEST SWAP3 POP SWAP3 POP POP SWAP3 SWAP6 POP SWAP3 SWAP6 SWAP1 SWAP4 POP JUMP JUMPDEST PUSH2 0x167B DUP2 PUSH2 0x14EC JUMP JUMPDEST DUP3 MSTORE POP POP JUMP JUMPDEST PUSH1 0x0 PUSH2 0x100 DUP3 ADD SWAP1 POP PUSH2 0x1697 PUSH1 0x0 DUP4 ADD DUP12 PUSH2 0x1310 JUMP JUMPDEST PUSH2 0x16A4 PUSH1 0x20 DUP4 ADD DUP11 PUSH2 0x1672 JUMP JUMPDEST PUSH2 0x16B1 PUSH1 0x40 DUP4 ADD DUP10 PUSH2 0x1310 JUMP JUMPDEST PUSH2 0x16BE PUSH1 0x60 DUP4 ADD DUP9 PUSH2 0x1310 JUMP JUMPDEST PUSH2 0x16CB PUSH1 0x80 DUP4 ADD DUP8 PUSH2 0x1310 JUMP JUMPDEST PUSH2 0x16D8 PUSH1 0xA0 DUP4 ADD DUP7 PUSH2 0x1310 JUMP JUMPDEST DUP2 DUP2 SUB PUSH1 0xC0 DUP4 ADD MSTORE PUSH2 0x16EA DUP2 DUP6 PUSH2 0x13B7 JUMP JUMPDEST SWAP1 POP PUSH2 0x16F9 PUSH1 0xE0 DUP4 ADD DUP5 PUSH2 0x1458 JUMP JUMPDEST SWAP10 SWAP9 POP POP POP POP POP POP POP POP POP JUMP JUMPDEST PUSH1 0x0 DUP1 PUSH1 0x0 DUP1 PUSH1 0x60 DUP6 DUP8 SUB SLT ISZERO PUSH2 0x1720 JUMPI PUSH2 0x171F PUSH2 0x12A3 JUMP JUMPDEST JUMPDEST PUSH1 0x0 PUSH2 0x172E DUP8 DUP3 DUP9 ADD PUSH2 0x12CE JUMP JUMPDEST SWAP5 POP POP PUSH1 0x20 PUSH2 0x173F DUP8 DUP3 DUP9 ADD PUSH2 0x12CE JUMP JUMPDEST SWAP4 POP POP PUSH1 0x40 DUP6 ADD CALLDATALOAD PUSH8 0xFFFFFFFFFFFFFFFF DUP2 GT ISZERO PUSH2 0x1760 JUMPI PUSH2 0x175F PUSH2 0x12A8 JUMP JUMPDEST JUMPDEST PUSH2 0x176C DUP8 DUP3 DUP9 ADD PUSH2 0x1594 JUMP JUMPDEST SWAP3 POP SWAP3 POP POP SWAP3 SWAP6 SWAP2 SWAP5 POP SWAP3 POP JUMP JUMPDEST PUSH1 0x0 PUSH1 0x20 DUP3 ADD SWAP1 POP PUSH2 0x178F PUSH1 0x0 DUP4 ADD DUP5 PUSH2 0x1672 JUMP JUMPDEST SWAP3 SWAP2 POP POP JUMP JUMPDEST PUSH32 0x4E487B7100000000000000000000000000000000000000000000000000000000 PUSH1 0x0 MSTORE PUSH1 0x22 PUSH1 0x4 MSTORE PUSH1 0x24 PUSH1 0x0 REVERT JUMPDEST PUSH1 0x0 PUSH1 0x2 DUP3 DIV SWAP1 POP PUSH1 0x1 DUP3 AND DUP1 PUSH2 0x17DC JUMPI PUSH1 0x7F DUP3 AND SWAP2 POP JUMPDEST PUSH1 0x20 DUP3 LT DUP2 SUB PUSH2 0x17EF JUMPI PUSH2 0x17EE PUSH2 0x1795 JUMP JUMPDEST JUMPDEST POP SWAP2 SWAP1 POP JUMP JUMPDEST PUSH32 0x4F6E6C792063726561746F722063616E20776974686472617700000000000000 PUSH1 0x0 DUP3 ADD MSTORE POP JUMP JUMPDEST PUSH1 0x0 PUSH2 0x182B PUSH1 0x19 DUP4 PUSH2 0x136B JUMP JUMPDEST SWAP2 POP PUSH2 0x1836 DUP3 PUSH2 0x17F5 JUMP JUMPDEST PUSH1 0x20 DUP3 ADD SWAP1 POP SWAP2 SWAP1 POP JUMP JUMPDEST PUSH1 0x0 PUSH1 0x20 DUP3 ADD SWAP1 POP DUP2 DUP2 SUB PUSH1 0x0 DUP4 ADD MSTORE PUSH2 0x185A DUP2 PUSH2 0x181E JUMP JUMPDEST SWAP1 POP SWAP2 SWAP1 POP JUMP JUMPDEST PUSH32 0x43616D706169676E206D75737420626520636C6F736564000000000000000000 PUSH1 0x0 DUP3 ADD MSTORE POP JUMP JUMPDEST PUSH1 0x0 PUSH2 0x1897 PUSH1 0x17 DUP4 PUSH2 0x136B JUMP JUMPDEST SWAP2 POP PUSH2 0x18A2 DUP3 PUSH2 0x1861 JUMP JUMPDEST PUSH1 0x20 DUP3 ADD SWAP1 POP SWAP2 SWAP1 POP JUMP JUMPDEST PUSH1 0x0 PUSH1 0x20 DUP3 ADD SWAP1 POP DUP2 DUP2 SUB PUSH1 0x0 DUP4 ADD MSTORE PUSH2 0x18C6 DUP2 PUSH2 0x188A JUMP JUMPDEST SWAP1 POP SWAP2 SWAP1 POP JUMP JUMPDEST PUSH32 0x4E6F2066756E647320617661696C61626C6520746F2077697468647261770000 PUSH1 0x0 DUP3 ADD MSTORE POP JUMP JUMPDEST PUSH1 0x0 PUSH2 0x1903 PUSH1 0x1E DUP4 PUSH2 0x136B JUMP JUMPDEST SWAP2 POP PUSH2 0x190E DUP3 PUSH2 0x18CD JUMP JUMPDEST PUSH1 0x20 DUP3 ADD SWAP1 POP SWAP2 SWAP1 POP JUMP JUMPDEST PUSH1 0x0 PUSH1 0x20 DUP3 ADD SWAP1 POP DUP2 DUP2 SUB PUSH1 0x0 DUP4 ADD MSTORE PUSH2 0x1932 DUP2 PUSH2 0x18F6 JUMP JUMPDEST SWAP1 POP SWAP2 SWAP1 POP JUMP JUMPDEST PUSH32 0x4E487B7100000000000000000000000000000000000000000000000000000000 PUSH1 0x0 MSTORE PUSH1 0x11 PUSH1 0x4 MSTORE PUSH1 0x24 PUSH1 0x0 REVERT JUMPDEST PUSH1 0x0 PUSH2 0x1973 DUP3 PUSH2 0x12AD JUMP JUMPDEST SWAP2 POP PUSH2 0x197E DUP4 PUSH2 0x12AD JUMP JUMPDEST SWAP3 POP DUP3 DUP3 MUL PUSH2 0x198C DUP2 PUSH2 0x12AD JUMP JUMPDEST SWAP2 POP DUP3 DUP3 DIV DUP5 EQ DUP4 ISZERO OR PUSH2 0x19A3 JUMPI PUSH2 0x19A2 PUSH2 0x1939 JUMP JUMPDEST JUMPDEST POP SWAP3 SWAP2 POP POP JUMP JUMPDEST PUSH32 0x4E487B7100000000000000000000000000000000000000000000000000000000 PUSH1 0x0 MSTORE PUSH1 0x12 PUSH1 0x4 MSTORE PUSH1 0x24 PUSH1 0x0 REVERT JUMPDEST PUSH1 0x0 PUSH2 0x19E4 DUP3 PUSH2 0x12AD JUMP JUMPDEST SWAP2 POP PUSH2 0x19EF DUP4 PUSH2 0x12AD JUMP JUMPDEST SWAP3 POP DUP3 PUSH2 0x19FF JUMPI PUSH2 0x19FE PUSH2 0x19AA JUMP JUMPDEST JUMPDEST DUP3 DUP3 DIV SWAP1 POP SWAP3 SWAP2 POP POP JUMP JUMPDEST PUSH1 0x0 PUSH2 0x1A15 DUP3 PUSH2 0x12AD JUMP JUMPDEST SWAP2 POP PUSH2 0x1A20 DUP4 PUSH2 0x12AD JUMP JUMPDEST SWAP3 POP DUP3 DUP3 SUB SWAP1 POP DUP2 DUP2 GT ISZERO PUSH2 0x1A38 JUMPI PUSH2 0x1A37 PUSH2 0x1939 JUMP JUMPDEST JUMPDEST SWAP3 SWAP2 POP POP JUMP JUMPDEST PUSH1 0x0 DUP2 SWAP1 POP SWAP3 SWAP2 POP POP JUMP JUMPDEST POP JUMP JUMPDEST PUSH1 0x0 PUSH2 0x1A59 PUSH1 0x0 DUP4 PUSH2 0x1A3E JUMP JUMPDEST SWAP2 POP PUSH2 0x1A64 DUP3 PUSH2 0x1A49 JUMP JUMPDEST PUSH1 0x0 DUP3 ADD SWAP1 POP SWAP2 SWAP1 POP JUMP JUMPDEST PUSH1 0x0 PUSH2 0x1A7A DUP3 PUSH2 0x1A4C JUMP JUMPDEST SWAP2 POP DUP2 SWAP1 POP SWAP2 SWAP1 POP JUMP JUMPDEST PUSH32 0x5769746864726177207472616E73666572206661696C65640000000000000000 PUSH1 0x0 DUP3 ADD MSTORE POP JUMP JUMPDEST PUSH1 0x0 PUSH2 0x1ABA PUSH1 0x18 DUP4 PUSH2 0x136B JUMP JUMPDEST SWAP2 POP PUSH2 0x1AC5 DUP3 PUSH2 0x1A84 JUMP JUMPDEST PUSH1 0x20 DUP3 ADD SWAP1 POP SWAP2 SWAP1 POP JUMP JUMPDEST PUSH1 0x0 PUSH1 0x20 DUP3 ADD SWAP1 POP DUP2 DUP2 SUB PUSH1 0x0 DUP4 ADD MSTORE PUSH2 0x1AE9 DUP2 PUSH2 0x1AAD JUMP JUMPDEST SWAP1 POP SWAP2 SWAP1 POP JUMP JUMPDEST PUSH32 0x4F6E6C792063726561746F722063616E20757064617465207468652063616D70 PUSH1 0x0 DUP3 ADD MSTORE PUSH32 0x6169676E00000000000000000000000000000000000000000000000000000000 PUSH1 0x20 DUP3 ADD MSTORE POP JUMP JUMPDEST PUSH1 0x0 PUSH2 0x1B4C PUSH1 0x24 DUP4 PUSH2 0x136B JUMP JUMPDEST SWAP2 POP PUSH2 0x1B57 DUP3 PUSH2 0x1AF0 JUMP JUMPDEST PUSH1 0x40 DUP3 ADD SWAP1 POP SWAP2 SWAP1 POP JUMP JUMPDEST PUSH1 0x0 PUSH1 0x20 DUP3 ADD SWAP1 POP DUP2 DUP2 SUB PUSH1 0x0 DUP4 ADD MSTORE PUSH2 0x1B7B DUP2 PUSH2 0x1B3F JUMP JUMPDEST SWAP1 POP SWAP2 SWAP1 POP JUMP JUMPDEST PUSH32 0x43616D706169676E206973206E6F742061637469766500000000000000000000 PUSH1 0x0 DUP3 ADD MSTORE POP JUMP JUMPDEST PUSH1 0x0 PUSH2 0x1BB8 PUSH1 0x16 DUP4 PUSH2 0x136B JUMP JUMPDEST SWAP2 POP PUSH2 0x1BC3 DUP3 PUSH2 0x1B82 JUMP JUMPDEST PUSH1 0x20 DUP3 ADD SWAP1 POP SWAP2 SWAP1 POP JUMP JUMPDEST PUSH1 0x0 PUSH1 0x20 DUP3 ADD SWAP1 POP DUP2 DUP2 SUB PUSH1 0x0 DUP4 ADD MSTORE PUSH2 0x1BE7 DUP2 PUSH2 0x1BAB JUMP JUMPDEST SWAP1 POP SWAP2 SWAP1 POP JUMP JUMPDEST PUSH32 0x4E657720646561646C696E65206D75737420626520696E207468652066757475 PUSH1 0x0 DUP3 ADD MSTORE PUSH32 0x7265000000000000000000000000000000000000000000000000000000000000 PUSH1 0x20 DUP3 ADD MSTORE POP JUMP JUMPDEST PUSH1 0x0 PUSH2 0x1C4A PUSH1 0x22 DUP4 PUSH2 0x136B JUMP JUMPDEST SWAP2 POP PUSH2 0x1C55 DUP3 PUSH2 0x1BEE JUMP JUMPDEST PUSH1 0x40 DUP3 ADD SWAP1 POP SWAP2 SWAP1 POP JUMP JUMPDEST PUSH1 0x0 PUSH1 0x20 DUP3 ADD SWAP1 POP DUP2 DUP2 SUB PUSH1 0x0 DUP4 ADD MSTORE PUSH2 0x1C79 DUP2 PUSH2 0x1C3D JUMP JUMPDEST SWAP1 POP SWAP2 SWAP1 POP JUMP JUMPDEST PUSH32 0x4E657720676F616C206D7573742062652067726561746572207468616E20746F PUSH1 0x0 DUP3 ADD MSTORE PUSH32 0x74616C2066756E64656400000000000000000000000000000000000000000000 PUSH1 0x20 DUP3 ADD MSTORE POP JUMP JUMPDEST PUSH1 0x0 PUSH2 0x1CDC PUSH1 0x2A DUP4 PUSH2 0x136B JUMP JUMPDEST SWAP2 POP PUSH2 0x1CE7 DUP3 PUSH2 0x1C80 JUMP JUMPDEST PUSH1 0x40 DUP3 ADD SWAP1 POP SWAP2 SWAP1 POP JUMP JUMPDEST PUSH1 0x0 PUSH1 0x20 DUP3 ADD SWAP1 POP DUP2 DUP2 SUB PUSH1 0x0 DUP4 ADD MSTORE PUSH2 0x1D0B DUP2 PUSH2 0x1CCF JUMP JUMPDEST SWAP1 POP SWAP2 SWAP1 POP JUMP JUMPDEST PUSH1 0x0 DUP3 SWAP1 POP SWAP3 SWAP2 POP POP JUMP JUMPDEST PUSH32 0x4E487B7100000000000000000000000000000000000000000000000000000000 PUSH1 0x0 MSTORE PUSH1 0x41 PUSH1 0x4 MSTORE PUSH1 0x24 PUSH1 0x0 REVERT JUMPDEST PUSH1 0x0 DUP2 SWAP1 POP DUP2 PUSH1 0x0 MSTORE PUSH1 0x20 PUSH1 0x0 KECCAK256 SWAP1 POP SWAP2 SWAP1 POP JUMP JUMPDEST PUSH1 0x0 PUSH1 0x20 PUSH1 0x1F DUP4 ADD DIV SWAP1 POP SWAP2 SWAP1 POP JUMP JUMPDEST PUSH1 0x0 DUP3 DUP3 SHL SWAP1 POP SWAP3 SWAP2 POP POP JUMP JUMPDEST PUSH1 0x0 PUSH1 0x8 DUP4 MUL PUSH2 0x1DAE PUSH32 0xFFFFFFFFFFFFFFFFFFFFFFFFFFFFFFFFFFFFFFFFFFFFFFFFFFFFFFFFFFFFFFFF DUP3 PUSH2 0x1D71 JUMP JUMPDEST PUSH2 0x1DB8 DUP7 DUP4 PUSH2 0x1D71 JUMP JUMPDEST SWAP6 POP DUP1 NOT DUP5 AND SWAP4 POP DUP1 DUP7 AND DUP5 OR SWAP3 POP POP POP SWAP4 SWAP3 POP POP POP JUMP JUMPDEST PUSH1 0x0 DUP2 SWAP1 POP SWAP2 SWAP1 POP JUMP JUMPDEST PUSH1 0x0 PUSH2 0x1DF5 PUSH2 0x1DF0 PUSH2 0x1DEB DUP5 PUSH2 0x12AD JUMP JUMPDEST PUSH2 0x1DD0 JUMP JUMPDEST PUSH2 0x12AD JUMP JUMPDEST SWAP1 POP SWAP2 SWAP1 POP JUMP JUMPDEST PUSH1 0x0 DUP2 SWAP1 POP SWAP2 SWAP1 POP JUMP JUMPDEST PUSH2 0x1E0F DUP4 PUSH2 0x1DDA JUMP JUMPDEST PUSH2 0x1E23 PUSH2 0x1E1B DUP3 PUSH2 0x1DFC JUMP JUMPDEST DUP5 DUP5 SLOAD PUSH2 0x1D7E JUMP JUMPDEST DUP3 SSTORE POP POP POP POP JUMP JUMPDEST PUSH1 0x0 SWAP1 JUMP JUMPDEST PUSH2 0x1E38 PUSH2 0x1E2B JUMP JUMPDEST PUSH2 0x1E43 DUP2 DUP5 DUP5 PUSH2 0x1E06 JUMP JUMPDEST POP POP POP JUMP JUMPDEST JUMPDEST DUP2 DUP2 LT ISZERO PUSH2 0x1E67 JUMPI PUSH2 0x1E5C PUSH1 0x0 DUP3 PUSH2 0x1E30 JUMP JUMPDEST PUSH1 0x1 DUP2 ADD SWAP1 POP PUSH2 0x1E49 JUMP JUMPDEST POP POP JUMP JUMPDEST PUSH1 0x1F DUP3 GT ISZERO PUSH2 0x1EAC JUMPI PUSH2 0x1E7D DUP2 PUSH2 0x1D4C JUMP JUMPDEST PUSH2 0x1E86 DUP5 PUSH2 0x1D61 JUMP JUMPDEST DUP2 ADD PUSH1 0x20 DUP6 LT ISZERO PUSH2 0x1E95 JUMPI DUP2 SWAP1 POP JUMPDEST PUSH2 0x1EA9 PUSH2 0x1EA1 DUP6 PUSH2 0x1D61 JUMP JUMPDEST DUP4 ADD DUP3 PUSH2 0x1E48 JUMP JUMPDEST POP POP JUMPDEST POP POP POP JUMP JUMPDEST PUSH1 0x0 DUP3 DUP3 SHR SWAP1 POP SWAP3 SWAP2 POP POP JUMP JUMPDEST PUSH1 0x0 PUSH2 0x1ECF PUSH1 0x0 NOT DUP5 PUSH1 0x8 MUL PUSH2 0x1EB1 JUMP JUMPDEST NOT DUP1 DUP4 AND SWAP2 POP POP SWAP3 SWAP2 POP POP JUMP JUMPDEST PUSH1 0x0 PUSH2 0x1EE8 DUP4 DUP4 PUSH2 0x1EBE JUMP JUMPDEST SWAP2 POP DUP3 PUSH1 0x2 MUL DUP3 OR SWAP1 POP SWAP3 SWAP2 POP POP JUMP JUMPDEST PUSH2 0x1F02 DUP4 DUP4 PUSH2 0x1D12 JUMP JUMPDEST PUSH8 0xFFFFFFFFFFFFFFFF DUP2 GT ISZERO PUSH2 0x1F1B JUMPI PUSH2 0x1F1A PUSH2 0x1D1D JUMP JUMPDEST JUMPDEST PUSH2 0x1F25 DUP3 SLOAD PUSH2 0x17C4 JUMP JUMPDEST PUSH2 0x1F30 DUP3 DUP3 DUP6 PUSH2 0x1E6B JUMP JUMPDEST PUSH1 0x0 PUSH1 0x1F DUP4 GT PUSH1 0x1 DUP2 EQ PUSH2 0x1F5F JUMPI PUSH1 0x0 DUP5 ISZERO PUSH2 0x1F4D JUMPI DUP3 DUP8 ADD CALLDATALOAD SWAP1 POP JUMPDEST PUSH2 0x1F57 DUP6 DUP3 PUSH2 0x1EDC JUMP JUMPDEST DUP7 SSTORE POP PUSH2 0x1FBF JUMP JUMPDEST PUSH1 0x1F NOT DUP5 AND PUSH2 0x1F6D DUP7 PUSH2 0x1D4C JUMP JUMPDEST PUSH1 0x0 JUMPDEST DUP3 DUP2 LT ISZERO PUSH2 0x1F95 JUMPI DUP5 DUP10 ADD CALLDATALOAD DUP3 SSTORE PUSH1 0x1 DUP3 ADD SWAP2 POP PUSH1 0x20 DUP6 ADD SWAP5 POP PUSH1 0x20 DUP2 ADD SWAP1 POP PUSH2 0x1F70 JUMP JUMPDEST DUP7 DUP4 LT ISZERO PUSH2 0x1FB2 JUMPI DUP5 DUP10 ADD CALLDATALOAD PUSH2 0x1FAE PUSH1 0x1F DUP10 AND DUP3 PUSH2 0x1EBE JUMP JUMPDEST DUP4 SSTORE POP JUMPDEST PUSH1 0x1 PUSH1 0x2 DUP9 MUL ADD DUP9 SSTORE POP POP POP JUMPDEST POP POP POP POP POP POP POP JUMP JUMPDEST DUP3 DUP2 DUP4 CALLDATACOPY PUSH1 0x0 DUP4 DUP4 ADD MSTORE POP POP POP JUMP JUMPDEST PUSH1 0x0 PUSH2 0x1FE3 DUP4 DUP6 PUSH2 0x136B JUMP JUMPDEST SWAP4 POP PUSH2 0x1FF0 DUP4 DUP6 DUP5 PUSH2 0x1FC8 JUMP JUMPDEST PUSH2 0x1FF9 DUP4 PUSH2 0x13A6 JUMP JUMPDEST DUP5 ADD SWAP1 POP SWAP4 SWAP3 POP POP POP JUMP JUMPDEST PUSH1 0x0 PUSH1 0x60 DUP3 ADD SWAP1 POP PUSH2 0x2019 PUSH1 0x0 DUP4 ADD DUP8 PUSH2 0x1310 JUMP JUMPDEST PUSH2 0x2026 PUSH1 0x20 DUP4 ADD DUP7 PUSH2 0x1310 JUMP JUMPDEST DUP2 DUP2 SUB PUSH1 0x40 DUP4 ADD MSTORE PUSH2 0x2039 DUP2 DUP5 DUP7 PUSH2 0x1FD7 JUMP JUMPDEST SWAP1 POP SWAP6 SWAP5 POP POP POP POP POP JUMP JUMPDEST PUSH32 0x446561646C696E65206D75737420626520696E20746865206675747572650000 PUSH1 0x0 DUP3 ADD MSTORE POP JUMP JUMPDEST PUSH1 0x0 PUSH2 0x207A PUSH1 0x1E DUP4 PUSH2 0x136B JUMP JUMPDEST SWAP2 POP PUSH2 0x2085 DUP3 PUSH2 0x2044 JUMP JUMPDEST PUSH1 0x20 DUP3 ADD SWAP1 POP SWAP2 SWAP1 POP JUMP JUMPDEST PUSH1 0x0 PUSH1 0x20 DUP3 ADD SWAP1 POP DUP2 DUP2 SUB PUSH1 0x0 DUP4 ADD MSTORE PUSH2 0x20A9 DUP2 PUSH2 0x206D JUMP JUMPDEST SWAP1 POP SWAP2 SWAP1 POP JUMP JUMPDEST PUSH32 0x476F616C206D7573742062652067726561746572207468616E20300000000000 PUSH1 0x0 DUP3 ADD MSTORE POP JUMP JUMPDEST PUSH1 0x0 PUSH2 0x20E6 PUSH1 0x1B DUP4 PUSH2 0x136B JUMP JUMPDEST SWAP2 POP PUSH2 0x20F1 DUP3 PUSH2 0x20B0 JUMP JUMPDEST PUSH1 0x20 DUP3 ADD SWAP1 POP SWAP2 SWAP1 POP JUMP JUMPDEST PUSH1 0x0 PUSH1 0x20 DUP3 ADD SWAP1 POP DUP2 DUP2 SUB PUSH1 0x0 DUP4 ADD MSTORE PUSH2 0x2115 DUP2 PUSH2 0x20D9 JUMP JUMPDEST SWAP1 POP SWAP2 SWAP1 POP JUMP JUMPDEST PUSH1 0x0 PUSH2 0x2127 DUP3 PUSH2 0x12AD JUMP JUMPDEST SWAP2 POP PUSH2 0x2132 DUP4 PUSH2 0x12AD JUMP JUMPDEST SWAP3 POP DUP3 DUP3 ADD SWAP1 POP DUP1 DUP3 GT ISZERO PUSH2 0x214A JUMPI PUSH2 0x2149 PUSH2 0x1939 JUMP JUMPDEST JUMPDEST SWAP3 SWAP2 POP POP JUMP JUMPDEST PUSH2 0x2159 DUP3 PUSH2 0x1360 JUMP JUMPDEST PUSH8 0xFFFFFFFFFFFFFFFF DUP2 GT ISZERO PUSH2 0x2172 JUMPI PUSH2 0x2171 PUSH2 0x1D1D JUMP JUMPDEST JUMPDEST PUSH2 0x217C DUP3 SLOAD PUSH2 0x17C4 JUMP JUMPDEST PUSH2 0x2187 DUP3 DUP3 DUP6 PUSH2 0x1E6B JUMP JUMPDEST PUSH1 0x0 PUSH1 0x20 SWAP1 POP PUSH1 0x1F DUP4 GT PUSH1 0x1 DUP2 EQ PUSH2 0x21BA JUMPI PUSH1 0x0 DUP5 ISZERO PUSH2 0x21A8 JUMPI DUP3 DUP8 ADD MLOAD SWAP1 POP JUMPDEST PUSH2 0x21B2 DUP6 DUP3 PUSH2 0x1EDC JUMP JUMPDEST DUP7 SSTORE POP PUSH2 0x221A JUMP JUMPDEST PUSH1 0x1F NOT DUP5 AND PUSH2 0x21C8 DUP7 PUSH2 0x1D4C JUMP JUMPDEST PUSH1 0x0 JUMPDEST DUP3 DUP2 LT ISZERO PUSH2 0x21F0 JUMPI DUP5 DUP10 ADD MLOAD DUP3 SSTORE PUSH1 0x1 DUP3 ADD SWAP2 POP PUSH1 0x20 DUP6 ADD SWAP5 POP PUSH1 0x20 DUP2 ADD SWAP1 POP PUSH2 0x21CB JUMP JUMPDEST DUP7 DUP4 LT ISZERO PUSH2 0x220D JUMPI DUP5 DUP10 ADD MLOAD PUSH2 0x2209 PUSH1 0x1F DUP10 AND DUP3 PUSH2 0x1EBE JUMP JUMPDEST DUP4 SSTORE POP JUMPDEST PUSH1 0x1 PUSH1 0x2 DUP9 MUL ADD DUP9 SSTORE POP POP POP JUMPDEST POP POP POP POP POP POP JUMP JUMPDEST PUSH32 0x4F6E6C792063726561746F722063616E20636C6F736500000000000000000000 PUSH1 0x0 DUP3 ADD MSTORE POP JUMP JUMPDEST PUSH1 0x0 PUSH2 0x2258 PUSH1 0x16 DUP4 PUSH2 0x136B JUMP JUMPDEST SWAP2 POP PUSH2 0x2263 DUP3 PUSH2 0x2222 JUMP JUMPDEST PUSH1 0x20 DUP3 ADD SWAP1 POP SWAP2 SWAP1 POP JUMP JUMPDEST PUSH1 0x0 PUSH1 0x20 DUP3 ADD SWAP1 POP DUP2 DUP2 SUB PUSH1 0x0 DUP4 ADD MSTORE PUSH2 0x2287 DUP2 PUSH2 0x224B JUMP JUMPDEST SWAP1 POP SWAP2 SWAP1 POP JUMP JUMPDEST PUSH32 0x43616D706169676E2063616E6E6F7420626520636C6F73656400000000000000 PUSH1 0x0 DUP3 ADD MSTORE POP JUMP JUMPDEST PUSH1 0x0 PUSH2 0x22C4 PUSH1 0x19 DUP4 PUSH2 0x136B JUMP JUMPDEST SWAP2 POP PUSH2 0x22CF DUP3 PUSH2 0x228E JUMP JUMPDEST PUSH1 0x20 DUP3 ADD SWAP1 POP SWAP2 SWAP1 POP JUMP JUMPDEST PUSH1 0x0 PUSH1 0x20 DUP3 ADD SWAP1 POP DUP2 DUP2 SUB PUSH1 0x0 DUP4 ADD MSTORE PUSH2 0x22F3 DUP2 PUSH2 0x22B7 JUMP JUMPDEST SWAP1 POP SWAP2 SWAP1 POP JUMP JUMPDEST PUSH32 0x4E6F206665657320746F20636F6C6C6563740000000000000000000000000000 PUSH1 0x0 DUP3 ADD MSTORE POP JUMP JUMPDEST PUSH1 0x0 PUSH2 0x2330 PUSH1 0x12 DUP4 PUSH2 0x136B JUMP JUMPDEST SWAP2 POP PUSH2 0x233B DUP3 PUSH2 0x22FA JUMP JUMPDEST PUSH1 0x20 DUP3 ADD SWAP1 POP SWAP2 SWAP1 POP JUMP JUMPDEST PUSH1 0x0 PUSH1 0x20 DUP3 ADD SWAP1 POP DUP2 DUP2 SUB PUSH1 0x0 DUP4 ADD MSTORE PUSH2 0x235F DUP2 PUSH2 0x2323 JUMP JUMPDEST SWAP1 POP SWAP2 SWAP1 POP JUMP JUMPDEST PUSH32 0x466565207472616E73666572206661696C656400000000000000000000000000 PUSH1 0x0 DUP3 ADD MSTORE POP JUMP JUMPDEST PUSH1 0x0 PUSH2 0x239C PUSH1 0x13 DUP4 PUSH2 0x136B JUMP JUMPDEST SWAP2 POP PUSH2 0x23A7 DUP3 PUSH2 0x2366 JUMP JUMPDEST PUSH1 0x20 DUP3 ADD SWAP1 POP SWAP2 SWAP1 POP JUMP JUMPDEST PUSH1 0x0 PUSH1 0x20 DUP3 ADD SWAP1 POP DUP2 DUP2 SUB PUSH1 0x0 DUP4 ADD MSTORE PUSH2 0x23CB DUP2 PUSH2 0x238F JUMP JUMPDEST SWAP1 POP SWAP2 SWAP1 POP JUMP JUMPDEST PUSH32 0x43616D706169676E20697320636C6F7365640000000000000000000000000000 PUSH1 0x0 DUP3 ADD MSTORE POP JUMP JUMPDEST PUSH1 0x0 PUSH2 0x2408 PUSH1 0x12 DUP4 PUSH2 0x136B JUMP JUMPDEST SWAP2 POP PUSH2 0x2413 DUP3 PUSH2 0x23D2 JUMP JUMPDEST PUSH1 0x20 DUP3 ADD SWAP1 POP SWAP2 SWAP1 POP JUMP JUMPDEST PUSH1 0x0 PUSH1 0x20 DUP3 ADD SWAP1 POP DUP2 DUP2 SUB PUSH1 0x0 DUP4 ADD MSTORE PUSH2 0x2437 DUP2 PUSH2 0x23FB JUMP JUMPDEST SWAP1 POP SWAP2 SWAP1 POP JUMP JUMPDEST PUSH32 0x43616D706169676E2068617320656E6465640000000000000000000000000000 PUSH1 0x0 DUP3 ADD MSTORE POP JUMP JUMPDEST PUSH1 0x0 PUSH2 0x2474 PUSH1 0x12 DUP4 PUSH2 0x136B JUMP JUMPDEST SWAP2 POP PUSH2 0x247F DUP3 PUSH2 0x243E JUMP JUMPDEST PUSH1 0x20 DUP3 ADD SWAP1 POP SWAP2 SWAP1 POP JUMP JUMPDEST PUSH1 0x0 PUSH1 0x20 DUP3 ADD SWAP1 POP DUP2 DUP2 SUB PUSH1 0x0 DUP4 ADD MSTORE PUSH2 0x24A3 DUP2 PUSH2 0x2467 JUMP JUMPDEST SWAP1 POP SWAP2 SWAP1 POP JUMP JUMPDEST PUSH32 0x4E6F204554482073656E74000000000000000000000000000000000000000000 PUSH1 0x0 DUP3 ADD MSTORE POP JUMP JUMPDEST PUSH1 0x0 PUSH2 0x24E0 PUSH1 0xB DUP4 PUSH2 0x136B JUMP JUMPDEST SWAP2 POP PUSH2 0x24EB DUP3 PUSH2 0x24AA JUMP JUMPDEST PUSH1 0x20 DUP3 ADD SWAP1 POP SWAP2 SWAP1 POP JUMP JUMPDEST PUSH1 0x0 PUSH1 0x20 DUP3 ADD SWAP1 POP DUP2 DUP2 SUB PUSH1 0x0 DUP4 ADD MSTORE PUSH2 0x250F DUP2 PUSH2 0x24D3 JUMP JUMPDEST SWAP1 POP SWAP2 SWAP1 POP JUMP JUMPDEST PUSH32 0x43726561746F722063616E6E6F742066756E64207468656972206F776E206361 PUSH1 0x0 DUP3 ADD MSTORE PUSH32 0x6D706169676E0000000000000000000000000000000000000000000000000000 PUSH1 0x20 DUP3 ADD MSTORE POP JUMP JUMPDEST PUSH1 0x0 PUSH2 0x2572 PUSH1 0x26 DUP4 PUSH2 0x136B JUMP JUMPDEST SWAP2 POP PUSH2 0x257D DUP3 PUSH2 0x2516 JUMP JUMPDEST PUSH1 0x40 DUP3 ADD SWAP1 POP SWAP2 SWAP1 POP JUMP JUMPDEST PUSH1 0x0 PUSH1 0x20 DUP3 ADD SWAP1 POP DUP2 DUP2 SUB PUSH1 0x0 DUP4 ADD MSTORE PUSH2 0x25A1 DUP2 PUSH2 0x2565 JUMP JUMPDEST SWAP1 POP SWAP2 SWAP1 POP JUMP INVALID LOG2 PUSH5 0x6970667358 0x22 SLT KECCAK256 0xD9 0xEE 0xCE 0xE3 LOG0 0x2C 0xDA 0x28 0xAB 0xA9 CREATE 0xE7 0xB5 0xE0 0xFC PUSH12 0xDAB588CC236F8AA0BAC8F68D CALLER SAR PUSH2 0x3D64 PUSH20 0x6F6C634300081C00330000000000000000000000 "},"methodIdentifiers":{"campaignFees(uint256)":"470f3796","campaigns(uint256)":"141961bc","closeCampaign(uint256)":"b0e1c1e1","collectFees(uint256)":"b17acdcd","contribute(uint256)":"c1cbbca7","contributions(uint256,address)":"3d891f59","createCampaign(uint256,uint256,string)":"91cbf44e","feeReceiver()":"b3f00674","getCampaign(uint256)":"5598f8cc","getCampaignCount()":"6caa9218","updateCampaign(uint256,uint256,uint256,string)":"48c4e3c3","withdraw(uint256)":"2e1a7d4d"}}}}}