{
  "_format": "hh-sol-artifact-1",
  "contractName": "Campaign",
  "sourceName": "contracts/Campaign.sol",
  "abi": [
    {
      "inputs": [],
      "stateMutability": "nonpayable",
      "type": "constructor"
    },
    {
      "anonymous": false,
      "inputs": [
        {
          "indexed": true,
          "internalType": "uint256",
          "name": "campaignId",
          "type": "uint256"
        },
        {
          "indexed": true,
          "internalType": "address",
          "name": "creator",
          "type": "address"
        }
      ],
      "name": "CampaignClosed",
      "type": "event"
    },
    {
      "anonymous": false,
      "inputs": [
        {
          "indexed": true,
          "internalType": "uint256",
          "name": "campaignId",
          "type": "uint256"
        },
        {
          "indexed": true,
          "internalType": "address",
          "name": "creator",
          "type": "address"
        },
        {
          "indexed": false,
          "internalType": "uint256",
          "name": "goal",
          "type": "uint256"
        },
        {
          "indexed": false,
          "internalType": "uint256",
          "name": "deadline",
          "type": "uint256"
        },
        {
          "indexed": false,
          "internalType": "string",
          "name": "metadataCID",
          "type": "string"
        }
      ],
      "name": "CampaignCreated",
      "type": "event"
    },
    {
      "anonymous": false,
      "inputs": [
        {
          "indexed": true,
          "internalType": "uint256",
          "name": "campaignId",
          "type": "uint256"
        },
        {
          "indexed": false,
          "internalType": "uint256",
          "name": "newGoal",
          "type": "uint256"
        },
        {
          "indexed": false,
          "internalType": "uint256",
          "name": "newDeadline",
          "type": "uint256"
        },
        {
          "indexed": false,
          "internalType": "string",
          "name": "newMetadataCID",
          "type": "string"
        }
      ],
      "name": "CampaignUpdated",
      "type": "event"
    },
    {
      "anonymous": false,
      "inputs": [
        {
          "indexed": true,
          "internalType": "uint256",
          "name": "campaignId",
          "type": "uint256"
        },
        {
          "indexed": true,
          "internalType": "address",
          "name": "contributor",
          "type": "address"
        },
        {
          "indexed": false,
          "internalType": "uint256",
          "name": "amount",
          "type": "uint256"
        }
      ],
      "name": "ContributionMade",
      "type": "event"
    },
    {
      "anonymous": false,
      "inputs": [
        {
          "indexed": true,
          "internalType": "uint256",
          "name": "campaignId",
          "type": "uint256"
        },
        {
          "indexed": false,
          "internalType": "uint256",
          "name": "amount",
          "type": "uint256"
        }
      ],
      "name": "FeesCollected",
      "type": "event"
    },
    {
      "anonymous": false,
      "inputs": [
        {
          "indexed": true,
          "internalType": "uint256",
          "name": "campaignId",
          "type": "uint256"
        },
        {
          "indexed": true,
          "internalType": "address",
          "name": "creator",
          "type": "address"
        },
        {
          "indexed": false,
          "internalType": "uint256",
          "name": "amount",
          "type": "uint256"
        }
      ],
      "name": "FundsWithdrawn",
      "type": "event"
    },
    {
      "inputs": [
        {
          "internalType": "uint256",
          "name": "",
          "type": "uint256"
        }
      ],
      "name": "campaignFees",
      "outputs": [
        {
          "internalType": "uint256",
          "name": "",
          "type": "uint256"
        }
      ],
      "stateMutability": "view",
      "type": "function"
    },
    {
      "inputs": [
        {
          "internalType": "uint256",
          "name": "",
          "type": "uint256"
        }
      ],
      "name": "campaigns",
      "outputs": [
        {
          "internalType": "uint256",
          "name": "id",
          "type": "uint256"
        },
        {
          "internalType": "address payable",
          "name": "creator",
          "type": "address"
        },
        {
          "internalType": "uint256",
          "name": "goal",
          "type": "uint256"
        },
        {
          "internalType": "uint256",
          "name": "deadline",
          "type": "uint256"
        },
        {
          "internalType": "uint256",
          "name": "totalFunded",
          "type": "uint256"
        },
        {
          "internalType": "uint256",
          "name": "totalContributions",
          "type": "uint256"
        },
        {
          "internalType": "string",
          "name": "metadataCID",
          "type": "string"
        },
        {
          "internalType": "enum Campaign.CampaignStatus",
          "name": "status",
          "type": "uint8"
        }
      ],
      "stateMutability": "view",
      "type": "function"
    },
    {
      "inputs": [
        {
          "internalType": "uint256",
          "name": "_campaignId",
          "type": "uint256"
        }
      ],
      "name": "closeCampaign",
      "outputs": [],
      "stateMutability": "nonpayable",
      "type": "function"
    },
    {
      "inputs": [
        {
          "internalType": "uint256",
          "name": "_campaignId",
          "type": "uint256"
        }
      ],
      "name": "collectFees",
      "outputs": [],
      "stateMutability": "nonpayable",
      "type": "function"
    },
    {
      "inputs": [
        {
          "internalType": "uint256",
          "name": "_campaignId",
          "type": "uint256"
        }
      ],
      "name": "contribute",
      "outputs": [],
      "stateMutability": "payable",
      "type": "function"
    },
    {
      "inputs": [
        {
          "internalType": "uint256",
          "name": "",
          "type": "uint256"
        },
        {
          "internalType": "address",
          "name": "",
          "type": "address"
        }
      ],
      "name": "contributions",
      "outputs": [
        {
          "internalType": "uint256",
          "name": "",
          "type": "uint256"
        }
      ],
      "stateMutability": "view",
      "type": "function"
    },
    {
      "inputs": [
        {
          "internalType": "uint256",
          "name": "_goal",
          "type": "uint256"
        },
        {
          "internalType": "uint256",
          "name": "_deadline",
          "type": "uint256"
        },
        {
          "internalType": "string",
          "name": "_metadataCID",
          "type": "string"
        }
      ],
      "name": "createCampaign",
      "outputs": [],
      "stateMutability": "nonpayable",
      "type": "function"
    },
    {
      "inputs": [],
      "name": "feeReceiver",
      "outputs": [
        {
          "internalType": "address",
          "name": "",
          "type": "address"
        }
      ],
      "stateMutability": "view",
      "type": "function"
    },
    {
      "inputs": [
        {
          "internalType": "uint256",
          "name": "_campaignId",
          "type": "uint256"
        }
      ],
      "name": "getCampaign",
      "outputs": [
        {
          "internalType": "uint256",
          "name": "id",
          "type": "uint256"
        },
        {
          "internalType": "address",
          "name": "creator",
          "type": "address"
        },
        {
          "internalType": "uint256",
          "name": "goal",
          "type": "uint256"
        },
        {
          "internalType": "uint256",
          "name": "deadline",
          "type": "uint256"
        },
        {
          "internalType": "uint256",
          "name": "totalFunded",
          "type": "uint256"
        },
        {
          "internalType": "uint256",
          "name": "totalContributions",
          "type": "uint256"
        },
        {
          "internalType": "string",
          "name": "metadataCID",
          "type": "string"
        },
        {
          "internalType": "enum Campaign.CampaignStatus",
          "name": "status",
          "type": "uint8"
        }
      ],
      "stateMutability": "view",
      "type": "function"
    },
    {
      "inputs": [],
      "name": "getCampaignCount",
      "outputs": [
        {
          "internalType": "uint256",
          "name": "",
          "type": "uint256"
        }
      ],
      "stateMutability": "view",
      "type": "function"
    },
    {
      "inputs": [
        {
          "internalType": "uint256",
          "name": "_campaignId",
          "type": "uint256"
        },
        {
          "internalType": "uint256",
          "name": "_newGoal",
          "type": "uint256"
        },
        {
          "internalType": "uint256",
          "name": "_newDeadline",
          "type": "uint256"
        },
        {
          "internalType": "string",
          "name": "_newMetadataCID",
          "type": "string"
        }
      ],
      "name": "updateCampaign",
      "outputs": [],
      "stateMutability": "nonpayable",
      "type": "function"
    },
    {
      "inputs": [
        {
          "internalType": "uint256",
          "name": "_campaignId",
          "type": "uint256"
        }
      ],
      "name": "withdraw",
      "outputs": [],
      "stateMutability": "nonpayable",
      "type": "function"
    }
  ],
  "bytecode": "0x6080604052348015600f57600080fd5b5033600460006101000a81548173ffffffffffffffffffffffffffffffffffffffff021916908373ffffffffffffffffffffffffffffffffffffffff1602179055506126c0806100606000396000f3fe6080604052600436106100a75760003560e01c80636caa9218116100645780636caa92181461020057806391cbf44e1461022b578063b0e1c1e114610254578063b17acdcd1461027d578063b3f00674146102a6578063c1cbbca7146102d1576100a7565b8063141961bc146100ac5780632e1a7d4d146100f05780633d891f5914610119578063470f37961461015657806348c4e3c3146101935780635598f8cc146101bc575b600080fd5b3480156100b857600080fd5b506100d360048036038101906100ce919061139f565b6102ed565b6040516100e7989796959493929190611523565b60405180910390f35b3480156100fc57600080fd5b506101176004803603810190610112919061139f565b6103ea565b005b34801561012557600080fd5b50610140600480360381019061013b91906115e6565b610733565b60405161014d9190611626565b60405180910390f35b34801561016257600080fd5b5061017d6004803603810190610178919061139f565b610758565b60405161018a9190611626565b60405180910390f35b34801561019f57600080fd5b506101ba60048036038101906101b591906116a6565b610770565b005b3480156101c857600080fd5b506101e360048036038101906101de919061139f565b610985565b6040516101f798979695949392919061173d565b60405180910390f35b34801561020c57600080fd5b50610215610aa4565b6040516102229190611626565b60405180910390f35b34801561023757600080fd5b50610252600480360381019061024d91906117c2565b610aad565b005b34801561026057600080fd5b5061027b6004803603810190610276919061139f565b610d29565b005b34801561028957600080fd5b506102a4600480360381019061029f919061139f565b610eff565b005b3480156102b257600080fd5b506102bb61107e565b6040516102c89190611836565b60405180910390f35b6102eb60048036038101906102e6919061139f565b6110a4565b005b60016020528060005260406000206000915090508060000154908060010160009054906101000a900473ffffffffffffffffffffffffffffffffffffffff169080600201549080600301549080600401549080600501549080600601805461035490611880565b80601f016020809104026020016040519081016040528092919081815260200182805461038090611880565b80156103cd5780601f106103a2576101008083540402835291602001916103cd565b820191906000526020600020905b8154815290600101906020018083116103b057829003601f168201915b5050505050908060070160009054906101000a900460ff16905088565b60006001600083815260200190815260200160002090508060010160009054906101000a900473ffffffffffffffffffffffffffffffffffffffff1673ffffffffffffffffffffffffffffffffffffffff163373ffffffffffffffffffffffffffffffffffffffff1614610493576040517f08c379a000000000000000000000000000000000000000000000000000000000815260040161048a906118fd565b60405180910390fd5b6002808111156104a6576104a56114ac565b5b8160070160009054906101000a900460ff1660028111156104ca576104c96114ac565b5b148061050b5750600160028111156104e5576104e46114ac565b5b8160070160009054906101000a900460ff166002811115610509576105086114ac565b5b145b61054a576040517f08c379a00000000000000000000000000000000000000000000000000000000081526004016105419061198f565b60405180910390fd5b6000816004015411610591576040517f08c379a0000000000000000000000000000000000000000000000000000000008152600401610588906119fb565b60405180910390fd5b600081600401549050600060646050836105ab9190611a4a565b6105b59190611abb565b9050600081836105c59190611aec565b905060028460070160006101000a81548160ff021916908360028111156105ef576105ee6114ac565b5b021790555080600360008781526020019081526020016000208190555060008460010160009054906101000a900473ffffffffffffffffffffffffffffffffffffffff1673ffffffffffffffffffffffffffffffffffffffff168360405161065690611b51565b60006040518083038185875af1925050503d8060008114610693576040519150601f19603f3d011682016040523d82523d6000602084013e610698565b606091505b50509050806106dc576040517f08c379a00000000000000000000000000000000000000000000000000000000081526004016106d390611bb2565b60405180910390fd5b3373ffffffffffffffffffffffffffffffffffffffff16867ff440aec6b52895984d061d622e6edeba6210f7c3e059be920663140c084560d7856040516107239190611626565b60405180910390a3505050505050565b6002602052816000526040600020602052806000526040600020600091509150505481565b60036020528060005260406000206000915090505481565b60006001600087815260200190815260200160002090508060010160009054906101000a900473ffffffffffffffffffffffffffffffffffffffff1673ffffffffffffffffffffffffffffffffffffffff163373ffffffffffffffffffffffffffffffffffffffff1614610819576040517f08c379a000000000000000000000000000000000000000000000000000000000815260040161081090611c44565b60405180910390fd5b6000600281111561082d5761082c6114ac565b5b8160070160009054906101000a900460ff166002811115610851576108506114ac565b5b14610891576040517f08c379a000000000000000000000000000000000000000000000000000000000815260040161088890611cb0565b60405180910390fd5b4284116108d3576040517f08c379a00000000000000000000000000000000000000000000000000000000081526004016108ca90611d42565b60405180910390fd5b80600401548511610919576040517f08c379a000000000000000000000000000000000000000000000000000000000815260040161091090611dd4565b60405180910390fd5b848160020181905550838160030181905550828282600601918261093e929190611fda565b50857fe8455e3a730598aeb3288ea71db44debb4af47b4d6ab68543dc5e9f22096f2498686868660405161097594939291906120e6565b60405180910390a2505050505050565b6000806000806000806060600080600160008b8152602001908152602001600020905080600001548160010160009054906101000a900473ffffffffffffffffffffffffffffffffffffffff168260020154836003015484600401548560050154866006018760070160009054906101000a900460ff16818054610a0890611880565b80601f0160208091040260200160405190810160405280929190818152602001828054610a3490611880565b8015610a815780601f10610a5657610100808354040283529160200191610a81565b820191906000526020600020905b815481529060010190602001808311610a6457829003601f168201915b505050505091509850985098509850985098509850985050919395975091939597565b60008054905090565b428311610aef576040517f08c379a0000000000000000000000000000000000000000000000000000000008152600401610ae690612172565b60405180910390fd5b60008411610b32576040517f08c379a0000000000000000000000000000000000000000000000000000000008152600401610b29906121de565b60405180910390fd5b6001600080828254610b4491906121fe565b9250508190555060405180610100016040528060005481526020013373ffffffffffffffffffffffffffffffffffffffff168152602001858152602001848152602001600081526020016000815260200183838080601f016020809104026020016040519081016040528093929190818152602001838380828437600081840152601f19601f82011690508083019250505050505050815260200160006002811115610bf357610bf26114ac565b5b81525060016000805481526020019081526020016000206000820151816000015560208201518160010160006101000a81548173ffffffffffffffffffffffffffffffffffffffff021916908373ffffffffffffffffffffffffffffffffffffffff16021790555060408201518160020155606082015181600301556080820151816004015560a0820151816005015560c0820151816006019081610c989190612232565b5060e08201518160070160006101000a81548160ff02191690836002811115610cc457610cc36114ac565b5b02179055509050503373ffffffffffffffffffffffffffffffffffffffff166000547f2e64da7e06e88ccd84d69eccb21119ca81e40e5648611e89edfe888c8fa6259786868686604051610d1b94939291906120e6565b60405180910390a350505050565b60006001600083815260200190815260200160002090508060010160009054906101000a900473ffffffffffffffffffffffffffffffffffffffff1673ffffffffffffffffffffffffffffffffffffffff163373ffffffffffffffffffffffffffffffffffffffff1614610dd2576040517f08c379a0000000000000000000000000000000000000000000000000000000008152600401610dc990612350565b60405180910390fd5b60006002811115610de657610de56114ac565b5b8160070160009054906101000a900460ff166002811115610e0a57610e096114ac565b5b1480610e4b575060016002811115610e2557610e246114ac565b5b8160070160009054906101000a900460ff166002811115610e4957610e486114ac565b5b145b610e8a576040517f08c379a0000000000000000000000000000000000000000000000000000000008152600401610e81906123bc565b60405180910390fd5b60028160070160006101000a81548160ff02191690836002811115610eb257610eb16114ac565b5b02179055503373ffffffffffffffffffffffffffffffffffffffff16827fa78af03f83be4496e7f3344865e5d4a44fa8ed036ba56cabd413e1882b92a79f60405160405180910390a35050565b60006003600083815260200190815260200160002054905060008111610f5a576040517f08c379a0000000000000000000000000000000000000000000000000000000008152600401610f5190612428565b60405180910390fd5b600060036000848152602001908152602001600020819055506000600460009054906101000a900473ffffffffffffffffffffffffffffffffffffffff1673ffffffffffffffffffffffffffffffffffffffff1682604051610fbb90611b51565b60006040518083038185875af1925050503d8060008114610ff8576040519150601f19603f3d011682016040523d82523d6000602084013e610ffd565b606091505b5050905080611041576040517f08c379a000000000000000000000000000000000000000000000000000000000815260040161103890612494565b60405180910390fd5b827f49d512bf9cb224241c05691e73eb9fab078cf350c7dbcbcf66788f1fc0cc8b0b836040516110719190611626565b60405180910390a2505050565b600460009054906101000a900473ffffffffffffffffffffffffffffffffffffffff1681565b60006001600083815260200190815260200160002090506002808111156110ce576110cd6114ac565b5b8160070160009054906101000a900460ff1660028111156110f2576110f16114ac565b5b03611132576040517f08c379a000000000000000000000000000000000000000000000000000000000815260040161112990612500565b60405180910390fd5b80600301544210611178576040517f08c379a000000000000000000000000000000000000000000000000000000000815260040161116f9061256c565b60405180910390fd5b600034116111bb576040517f08c379a00000000000000000000000000000000000000000000000000000000081526004016111b2906125d8565b60405180910390fd5b8060010160009054906101000a900473ffffffffffffffffffffffffffffffffffffffff1673ffffffffffffffffffffffffffffffffffffffff163373ffffffffffffffffffffffffffffffffffffffff160361124d576040517f08c379a00000000000000000000000000000000000000000000000000000000081526004016112449061266a565b60405180910390fd5b3481600401600082825461126191906121fe565b92505081905550346002600084815260200190815260200160002060003373ffffffffffffffffffffffffffffffffffffffff1673ffffffffffffffffffffffffffffffffffffffff16815260200190815260200160002060008282546112c891906121fe565b925050819055503373ffffffffffffffffffffffffffffffffffffffff16827f0a4a91237423e0a1766a761c7cb029311d8b95d6b1b81db1b949a70c98b4e08e346040516113169190611626565b60405180910390a3806002015481600401541061135b5760018160070160006101000a81548160ff02191690836002811115611355576113546114ac565b5b02179055505b5050565b600080fd5b600080fd5b6000819050919050565b61137c81611369565b811461138757600080fd5b50565b60008135905061139981611373565b92915050565b6000602082840312156113b5576113b461135f565b5b60006113c38482850161138a565b91505092915050565b6113d581611369565b82525050565b600073ffffffffffffffffffffffffffffffffffffffff82169050919050565b6000611406826113db565b9050919050565b611416816113fb565b82525050565b600081519050919050565b600082825260208201905092915050565b60005b8381101561145657808201518184015260208101905061143b565b60008484015250505050565b6000601f19601f8301169050919050565b600061147e8261141c565b6114888185611427565b9350611498818560208601611438565b6114a181611462565b840191505092915050565b7f4e487b7100000000000000000000000000000000000000000000000000000000600052602160045260246000fd5b600381106114ec576114eb6114ac565b5b50565b60008190506114fd826114db565b919050565b600061150d826114ef565b9050919050565b61151d81611502565b82525050565b600061010082019050611539600083018b6113cc565b611546602083018a61140d565b61155360408301896113cc565b61156060608301886113cc565b61156d60808301876113cc565b61157a60a08301866113cc565b81810360c083015261158c8185611473565b905061159b60e0830184611514565b9998505050505050505050565b60006115b3826113db565b9050919050565b6115c3816115a8565b81146115ce57600080fd5b50565b6000813590506115e0816115ba565b92915050565b600080604083850312156115fd576115fc61135f565b5b600061160b8582860161138a565b925050602061161c858286016115d1565b9150509250929050565b600060208201905061163b60008301846113cc565b92915050565b600080fd5b600080fd5b600080fd5b60008083601f84011261166657611665611641565b5b8235905067ffffffffffffffff81111561168357611682611646565b5b60208301915083600182028301111561169f5761169e61164b565b5b9250929050565b6000806000806000608086880312156116c2576116c161135f565b5b60006116d08882890161138a565b95505060206116e18882890161138a565b94505060406116f28882890161138a565b935050606086013567ffffffffffffffff81111561171357611712611364565b5b61171f88828901611650565b92509250509295509295909350565b611737816115a8565b82525050565b600061010082019050611753600083018b6113cc565b611760602083018a61172e565b61176d60408301896113cc565b61177a60608301886113cc565b61178760808301876113cc565b61179460a08301866113cc565b81810360c08301526117a68185611473565b90506117b560e0830184611514565b9998505050505050505050565b600080600080606085870312156117dc576117db61135f565b5b60006117ea8782880161138a565b94505060206117fb8782880161138a565b935050604085013567ffffffffffffffff81111561181c5761181b611364565b5b61182887828801611650565b925092505092959194509250565b600060208201905061184b600083018461172e565b92915050565b7f4e487b7100000000000000000000000000000000000000000000000000000000600052602260045260246000fd5b6000600282049050600182168061189857607f821691505b6020821081036118ab576118aa611851565b5b50919050565b7f4f6e6c792063726561746f722063616e20776974686472617700000000000000600082015250565b60006118e7601983611427565b91506118f2826118b1565b602082019050919050565b60006020820190508181036000830152611916816118da565b9050919050565b7f43616d706169676e206d75737420626520636c6f736564206f7220737563636560008201527f737366756c000000000000000000000000000000000000000000000000000000602082015250565b6000611979602583611427565b91506119848261191d565b604082019050919050565b600060208201905081810360008301526119a88161196c565b9050919050565b7f4e6f2066756e647320617661696c61626c6520746f2077697468647261770000600082015250565b60006119e5601e83611427565b91506119f0826119af565b602082019050919050565b60006020820190508181036000830152611a14816119d8565b9050919050565b7f4e487b7100000000000000000000000000000000000000000000000000000000600052601160045260246000fd5b6000611a5582611369565b9150611a6083611369565b9250828202611a6e81611369565b91508282048414831517611a8557611a84611a1b565b5b5092915050565b7f4e487b7100000000000000000000000000000000000000000000000000000000600052601260045260246000fd5b6000611ac682611369565b9150611ad183611369565b925082611ae157611ae0611a8c565b5b828204905092915050565b6000611af782611369565b9150611b0283611369565b9250828203905081811115611b1a57611b19611a1b565b5b92915050565b600081905092915050565b50565b6000611b3b600083611b20565b9150611b4682611b2b565b600082019050919050565b6000611b5c82611b2e565b9150819050919050565b7f5769746864726177207472616e73666572206661696c65640000000000000000600082015250565b6000611b9c601883611427565b9150611ba782611b66565b602082019050919050565b60006020820190508181036000830152611bcb81611b8f565b9050919050565b7f4f6e6c792063726561746f722063616e20757064617465207468652063616d7060008201527f6169676e00000000000000000000000000000000000000000000000000000000602082015250565b6000611c2e602483611427565b9150611c3982611bd2565b604082019050919050565b60006020820190508181036000830152611c5d81611c21565b9050919050565b7f43616d706169676e206973206e6f742061637469766500000000000000000000600082015250565b6000611c9a601683611427565b9150611ca582611c64565b602082019050919050565b60006020820190508181036000830152611cc981611c8d565b9050919050565b7f4e657720646561646c696e65206d75737420626520696e20746865206675747560008201527f7265000000000000000000000000000000000000000000000000000000000000602082015250565b6000611d2c602283611427565b9150611d3782611cd0565b604082019050919050565b60006020820190508181036000830152611d5b81611d1f565b9050919050565b7f4e657720676f616c206d7573742062652067726561746572207468616e20746f60008201527f74616c2066756e64656400000000000000000000000000000000000000000000602082015250565b6000611dbe602a83611427565b9150611dc982611d62565b604082019050919050565b60006020820190508181036000830152611ded81611db1565b9050919050565b600082905092915050565b7f4e487b7100000000000000000000000000000000000000000000000000000000600052604160045260246000fd5b60008190508160005260206000209050919050565b60006020601f8301049050919050565b600082821b905092915050565b600060088302611e907fffffffffffffffffffffffffffffffffffffffffffffffffffffffffffffffff82611e53565b611e9a8683611e53565b95508019841693508086168417925050509392505050565b6000819050919050565b6000611ed7611ed2611ecd84611369565b611eb2565b611369565b9050919050565b6000819050919050565b611ef183611ebc565b611f05611efd82611ede565b848454611e60565b825550505050565b600090565b611f1a611f0d565b611f25818484611ee8565b505050565b5b81811015611f4957611f3e600082611f12565b600181019050611f2b565b5050565b601f821115611f8e57611f5f81611e2e565b611f6884611e43565b81016020851015611f77578190505b611f8b611f8385611e43565b830182611f2a565b50505b505050565b600082821c905092915050565b6000611fb160001984600802611f93565b1980831691505092915050565b6000611fca8383611fa0565b9150826002028217905092915050565b611fe48383611df4565b67ffffffffffffffff811115611ffd57611ffc611dff565b5b6120078254611880565b612012828285611f4d565b6000601f831160018114612041576000841561202f578287013590505b6120398582611fbe565b8655506120a1565b601f19841661204f86611e2e565b60005b8281101561207757848901358255600182019150602085019450602081019050612052565b868310156120945784890135612090601f891682611fa0565b8355505b6001600288020188555050505b50505050505050565b82818337600083830152505050565b60006120c58385611427565b93506120d28385846120aa565b6120db83611462565b840190509392505050565b60006060820190506120fb60008301876113cc565b61210860208301866113cc565b818103604083015261211b8184866120b9565b905095945050505050565b7f446561646c696e65206d75737420626520696e20746865206675747572650000600082015250565b600061215c601e83611427565b915061216782612126565b602082019050919050565b6000602082019050818103600083015261218b8161214f565b9050919050565b7f476f616c206d7573742062652067726561746572207468616e20300000000000600082015250565b60006121c8601b83611427565b91506121d382612192565b602082019050919050565b600060208201905081810360008301526121f7816121bb565b9050919050565b600061220982611369565b915061221483611369565b925082820190508082111561222c5761222b611a1b565b5b92915050565b61223b8261141c565b67ffffffffffffffff81111561225457612253611dff565b5b61225e8254611880565b612269828285611f4d565b600060209050601f83116001811461229c576000841561228a578287015190505b6122948582611fbe565b8655506122fc565b601f1984166122aa86611e2e565b60005b828110156122d2578489015182556001820191506020850194506020810190506122ad565b868310156122ef57848901516122eb601f891682611fa0565b8355505b6001600288020188555050505b505050505050565b7f4f6e6c792063726561746f722063616e20636c6f736500000000000000000000600082015250565b600061233a601683611427565b915061234582612304565b602082019050919050565b600060208201905081810360008301526123698161232d565b9050919050565b7f43616d706169676e2063616e6e6f7420626520636c6f73656400000000000000600082015250565b60006123a6601983611427565b91506123b182612370565b602082019050919050565b600060208201905081810360008301526123d581612399565b9050919050565b7f4e6f206665657320746f20636f6c6c6563740000000000000000000000000000600082015250565b6000612412601283611427565b915061241d826123dc565b602082019050919050565b6000602082019050818103600083015261244181612405565b9050919050565b7f466565207472616e73666572206661696c656400000000000000000000000000600082015250565b600061247e601383611427565b915061248982612448565b602082019050919050565b600060208201905081810360008301526124ad81612471565b9050919050565b7f43616d706169676e20697320636c6f7365640000000000000000000000000000600082015250565b60006124ea601283611427565b91506124f5826124b4565b602082019050919050565b60006020820190508181036000830152612519816124dd565b9050919050565b7f43616d706169676e2068617320656e6465640000000000000000000000000000600082015250565b6000612556601283611427565b915061256182612520565b602082019050919050565b6000602082019050818103600083015261258581612549565b9050919050565b7f4e6f204554482073656e74000000000000000000000000000000000000000000600082015250565b60006125c2600b83611427565b91506125cd8261258c565b602082019050919050565b600060208201905081810360008301526125f1816125b5565b9050919050565b7f43726561746f722063616e6e6f742066756e64207468656972206f776e20636160008201527f6d706169676e0000000000000000000000000000000000000000000000000000602082015250565b6000612654602683611427565b915061265f826125f8565b604082019050919050565b6000602082019050818103600083015261268381612647565b905091905056fea264697066735822122052637a7bbe065e3b59cd7dedd803a25154c8c88ebad65823a9d3687eab23818764736f6c634300081c0033",
  "linkReferences": {},
  "deployedLinkReferences": {}
}