{
  "_format": "hh-sol-artifact-1",
  "contractName": "Campaign",
  "sourceName": "contracts/Campaign.sol",
  "abi": [
    {
      "anonymous": false,
      "inputs": [
        {
          "indexed": true,
          "internalType": "uint256",
          "name": "campaignId",
          "type": "uint256"
        },
        {
          "indexed": true,
          "internalType": "address",
          "name": "creator",
          "type": "address"
        }
      ],
      "name": "CampaignClosed",
      "type": "event"
    },
    {
      "anonymous": false,
      "inputs": [
        {
          "indexed": true,
          "internalType": "uint256",
          "name": "campaignId",
          "type": "uint256"
        },
        {
          "indexed": true,
          "internalType": "address",
          "name": "creator",
          "type": "address"
        },
        {
          "indexed": false,
          "internalType": "uint256",
          "name": "goal",
          "type": "uint256"
        },
        {
          "indexed": false,
          "internalType": "uint256",
          "name": "deadline",
          "type": "uint256"
        },
        {
          "indexed": false,
          "internalType": "string",
          "name": "metadataCID",
          "type": "string"
        }
      ],
      "name": "CampaignCreated",
      "type": "event"
    },
    {
      "anonymous": false,
      "inputs": [
        {
          "indexed": true,
          "internalType": "uint256",
          "name": "campaignId",
          "type": "uint256"
        },
        {
          "indexed": false,
          "internalType": "uint256",
          "name": "newGoal",
          "type": "uint256"
        },
        {
          "indexed": false,
          "internalType": "uint256",
          "name": "newDeadline",
          "type": "uint256"
        },
        {
          "indexed": false,
          "internalType": "string",
          "name": "newMetadataCID",
          "type": "string"
        }
      ],
      "name": "CampaignUpdated",
      "type": "event"
    },
    {
      "anonymous": false,
      "inputs": [
        {
          "indexed": true,
          "internalType": "uint256",
          "name": "campaignId",
          "type": "uint256"
        },
        {
          "indexed": true,
          "internalType": "address",
          "name": "contributor",
          "type": "address"
        },
        {
          "indexed": false,
          "internalType": "uint256",
          "name": "amount",
          "type": "uint256"
        }
      ],
      "name": "ContributionMade",
      "type": "event"
    },
    {
      "anonymous": false,
      "inputs": [
        {
          "indexed": true,
          "internalType": "uint256",
          "name": "campaignId",
          "type": "uint256"
        },
        {
          "indexed": true,
          "internalType": "address",
          "name": "creator",
          "type": "address"
        },
        {
          "indexed": false,
          "internalType": "uint256",
          "name": "amount",
          "type": "uint256"
        }
      ],
      "name": "FundsWithdrawn",
      "type": "event"
    },
    {
      "inputs": [
        {
          "internalType": "uint256",
          "name": "",
          "type": "uint256"
        }
      ],
      "name": "campaigns",
      "outputs": [
        {
          "internalType": "uint256",
          "name": "id",
          "type": "uint256"
        },
        {
          "internalType": "address payable",
          "name": "creator",
          "type": "address"
        },
        {
          "internalType": "uint256",
          "name": "goal",
          "type": "uint256"
        },
        {
          "internalType": "uint256",
          "name": "deadline",
          "type": "uint256"
        },
        {
          "internalType": "uint256",
          "name": "totalFunded",
          "type": "uint256"
        },
        {
          "internalType": "uint256",
          "name": "totalContributions",
          "type": "uint256"
        },
        {
          "internalType": "string",
          "name": "metadataCID",
          "type": "string"
        },
        {
          "internalType": "enum Campaign.CampaignStatus",
          "name": "status",
          "type": "uint8"
        }
      ],
      "stateMutability": "view",
      "type": "function"
    },
    {
      "inputs": [
        {
          "internalType": "uint256",
          "name": "_campaignId",
          "type": "uint256"
        }
      ],
      "name": "closeCampaign",
      "outputs": [],
      "stateMutability": "nonpayable",
      "type": "function"
    },
    {
      "inputs": [
        {
          "internalType": "uint256",
          "name": "_campaignId",
          "type": "uint256"
        }
      ],
      "name": "contribute",
      "outputs": [],
      "stateMutability": "payable",
      "type": "function"
    },
    {
      "inputs": [
        {
          "internalType": "uint256",
          "name": "",
          "type": "uint256"
        },
        {
          "internalType": "address",
          "name": "",
          "type": "address"
        }
      ],
      "name": "contributions",
      "outputs": [
        {
          "internalType": "uint256",
          "name": "",
          "type": "uint256"
        }
      ],
      "stateMutability": "view",
      "type": "function"
    },
    {
      "inputs": [
        {
          "internalType": "uint256",
          "name": "_goal",
          "type": "uint256"
        },
        {
          "internalType": "uint256",
          "name": "_deadline",
          "type": "uint256"
        },
        {
          "internalType": "string",
          "name": "_metadataCID",
          "type": "string"
        }
      ],
      "name": "createCampaign",
      "outputs": [],
      "stateMutability": "nonpayable",
      "type": "function"
    },
    {
      "inputs": [
        {
          "internalType": "uint256",
          "name": "_campaignId",
          "type": "uint256"
        }
      ],
      "name": "getCampaign",
      "outputs": [
        {
          "internalType": "uint256",
          "name": "id",
          "type": "uint256"
        },
        {
          "internalType": "address",
          "name": "creator",
          "type": "address"
        },
        {
          "internalType": "uint256",
          "name": "goal",
          "type": "uint256"
        },
        {
          "internalType": "uint256",
          "name": "deadline",
          "type": "uint256"
        },
        {
          "internalType": "uint256",
          "name": "totalFunded",
          "type": "uint256"
        },
        {
          "internalType": "uint256",
          "name": "totalContributions",
          "type": "uint256"
        },
        {
          "internalType": "string",
          "name": "metadataCID",
          "type": "string"
        },
        {
          "internalType": "enum Campaign.CampaignStatus",
          "name": "status",
          "type": "uint8"
        }
      ],
      "stateMutability": "view",
      "type": "function"
    },
    {
      "inputs": [],
      "name": "getCampaignCount",
      "outputs": [
        {
          "internalType": "uint256",
          "name": "",
          "type": "uint256"
        }
      ],
      "stateMutability": "view",
      "type": "function"
    },
    {
      "inputs": [
        {
          "internalType": "uint256",
          "name": "_campaignId",
          "type": "uint256"
        },
        {
          "internalType": "uint256",
          "name": "_newGoal",
          "type": "uint256"
        },
        {
          "internalType": "uint256",
          "name": "_newDeadline",
          "type": "uint256"
        },
        {
          "internalType": "string",
          "name": "_newMetadataCID",
          "type": "string"
        }
      ],
      "name": "updateCampaign",
      "outputs": [],
      "stateMutability": "nonpayable",
      "type": "function"
    },
    {
      "inputs": [
        {
          "internalType": "uint256",
          "name": "_campaignId",
          "type": "uint256"
        }
      ],
      "name": "withdraw",
      "outputs": [],
      "stateMutability": "nonpayable",
      "type": "function"
    }
  ],
  "bytecode": "0x6080604052348015600f57600080fd5b506122418061001f6000396000f3fe6080604052600436106100865760003560e01c80635598f8cc116100595780635598f8cc1461015e5780636caa9218146101a257806391cbf44e146101cd578063b0e1c1e1146101f6578063c1cbbca71461021f57610086565b8063141961bc1461008b5780632e1a7d4d146100cf5780633d891f59146100f857806348c4e3c314610135575b600080fd5b34801561009757600080fd5b506100b260048036038101906100ad91906110e9565b61023b565b6040516100c698979695949392919061126d565b60405180910390f35b3480156100db57600080fd5b506100f660048036038101906100f191906110e9565b610338565b005b34801561010457600080fd5b5061011f600480360381019061011a9190611330565b61063a565b60405161012c9190611370565b60405180910390f35b34801561014157600080fd5b5061015c600480360381019061015791906113f0565b61065f565b005b34801561016a57600080fd5b50610185600480360381019061018091906110e9565b610874565b604051610199989796959493929190611487565b60405180910390f35b3480156101ae57600080fd5b506101b7610993565b6040516101c49190611370565b60405180910390f35b3480156101d957600080fd5b506101f460048036038101906101ef919061150c565b61099c565b005b34801561020257600080fd5b5061021d600480360381019061021891906110e9565b610c18565b005b610239600480360381019061023491906110e9565b610dee565b005b60016020528060005260406000206000915090508060000154908060010160009054906101000a900473ffffffffffffffffffffffffffffffffffffffff16908060020154908060030154908060040154908060050154908060060180546102a2906115af565b80601f01602080910402602001604051908101604052809291908181526020018280546102ce906115af565b801561031b5780601f106102f05761010080835404028352916020019161031b565b820191906000526020600020905b8154815290600101906020018083116102fe57829003601f168201915b5050505050908060070160009054906101000a900460ff16905088565b60006001600083815260200190815260200160002090508060010160009054906101000a900473ffffffffffffffffffffffffffffffffffffffff1673ffffffffffffffffffffffffffffffffffffffff163373ffffffffffffffffffffffffffffffffffffffff16146103e1576040517f08c379a00000000000000000000000000000000000000000000000000000000081526004016103d89061162c565b60405180910390fd5b6002808111156103f4576103f36111f6565b5b8160070160009054906101000a900460ff166002811115610418576104176111f6565b5b1480610459575060016002811115610433576104326111f6565b5b8160070160009054906101000a900460ff166002811115610457576104566111f6565b5b145b610498576040517f08c379a000000000000000000000000000000000000000000000000000000000815260040161048f906116be565b60405180910390fd5b60008160040154116104df576040517f08c379a00000000000000000000000000000000000000000000000000000000081526004016104d69061172a565b60405180910390fd5b60008160040154905060028260070160006101000a81548160ff021916908360028111156105105761050f6111f6565b5b021790555060008260010160009054906101000a900473ffffffffffffffffffffffffffffffffffffffff1673ffffffffffffffffffffffffffffffffffffffff168260405161055f9061177b565b60006040518083038185875af1925050503d806000811461059c576040519150601f19603f3d011682016040523d82523d6000602084013e6105a1565b606091505b50509050806105e5576040517f08c379a00000000000000000000000000000000000000000000000000000000081526004016105dc906117dc565b60405180910390fd5b3373ffffffffffffffffffffffffffffffffffffffff16847ff440aec6b52895984d061d622e6edeba6210f7c3e059be920663140c084560d78460405161062c9190611370565b60405180910390a350505050565b6002602052816000526040600020602052806000526040600020600091509150505481565b60006001600087815260200190815260200160002090508060010160009054906101000a900473ffffffffffffffffffffffffffffffffffffffff1673ffffffffffffffffffffffffffffffffffffffff163373ffffffffffffffffffffffffffffffffffffffff1614610708576040517f08c379a00000000000000000000000000000000000000000000000000000000081526004016106ff9061186e565b60405180910390fd5b6000600281111561071c5761071b6111f6565b5b8160070160009054906101000a900460ff1660028111156107405761073f6111f6565b5b14610780576040517f08c379a0000000000000000000000000000000000000000000000000000000008152600401610777906118da565b60405180910390fd5b4284116107c2576040517f08c379a00000000000000000000000000000000000000000000000000000000081526004016107b99061196c565b60405180910390fd5b80600401548511610808576040517f08c379a00000000000000000000000000000000000000000000000000000000081526004016107ff906119fe565b60405180910390fd5b848160020181905550838160030181905550828282600601918261082d929190611c04565b50857fe8455e3a730598aeb3288ea71db44debb4af47b4d6ab68543dc5e9f22096f249868686866040516108649493929190611d10565b60405180910390a2505050505050565b6000806000806000806060600080600160008b8152602001908152602001600020905080600001548160010160009054906101000a900473ffffffffffffffffffffffffffffffffffffffff168260020154836003015484600401548560050154866006018760070160009054906101000a900460ff168180546108f7906115af565b80601f0160208091040260200160405190810160405280929190818152602001828054610923906115af565b80156109705780601f1061094557610100808354040283529160200191610970565b820191906000526020600020905b81548152906001019060200180831161095357829003601f168201915b505050505091509850985098509850985098509850985050919395975091939597565b60008054905090565b4283116109de576040517f08c379a00000000000000000000000000000000000000000000000000000000081526004016109d590611d9c565b60405180910390fd5b60008411610a21576040517f08c379a0000000000000000000000000000000000000000000000000000000008152600401610a1890611e08565b60405180910390fd5b6001600080828254610a339190611e57565b9250508190555060405180610100016040528060005481526020013373ffffffffffffffffffffffffffffffffffffffff168152602001858152602001848152602001600081526020016000815260200183838080601f016020809104026020016040519081016040528093929190818152602001838380828437600081840152601f19601f82011690508083019250505050505050815260200160006002811115610ae257610ae16111f6565b5b81525060016000805481526020019081526020016000206000820151816000015560208201518160010160006101000a81548173ffffffffffffffffffffffffffffffffffffffff021916908373ffffffffffffffffffffffffffffffffffffffff16021790555060408201518160020155606082015181600301556080820151816004015560a0820151816005015560c0820151816006019081610b879190611e8b565b5060e08201518160070160006101000a81548160ff02191690836002811115610bb357610bb26111f6565b5b02179055509050503373ffffffffffffffffffffffffffffffffffffffff166000547f2e64da7e06e88ccd84d69eccb21119ca81e40e5648611e89edfe888c8fa6259786868686604051610c0a9493929190611d10565b60405180910390a350505050565b60006001600083815260200190815260200160002090508060010160009054906101000a900473ffffffffffffffffffffffffffffffffffffffff1673ffffffffffffffffffffffffffffffffffffffff163373ffffffffffffffffffffffffffffffffffffffff1614610cc1576040517f08c379a0000000000000000000000000000000000000000000000000000000008152600401610cb890611fa9565b60405180910390fd5b60006002811115610cd557610cd46111f6565b5b8160070160009054906101000a900460ff166002811115610cf957610cf86111f6565b5b1480610d3a575060016002811115610d1457610d136111f6565b5b8160070160009054906101000a900460ff166002811115610d3857610d376111f6565b5b145b610d79576040517f08c379a0000000000000000000000000000000000000000000000000000000008152600401610d7090612015565b60405180910390fd5b60028160070160006101000a81548160ff02191690836002811115610da157610da06111f6565b5b02179055503373ffffffffffffffffffffffffffffffffffffffff16827fa78af03f83be4496e7f3344865e5d4a44fa8ed036ba56cabd413e1882b92a79f60405160405180910390a35050565b6000600160008381526020019081526020016000209050600280811115610e1857610e176111f6565b5b8160070160009054906101000a900460ff166002811115610e3c57610e3b6111f6565b5b03610e7c576040517f08c379a0000000000000000000000000000000000000000000000000000000008152600401610e7390612081565b60405180910390fd5b80600301544210610ec2576040517f08c379a0000000000000000000000000000000000000000000000000000000008152600401610eb9906120ed565b60405180910390fd5b60003411610f05576040517f08c379a0000000000000000000000000000000000000000000000000000000008152600401610efc90612159565b60405180910390fd5b8060010160009054906101000a900473ffffffffffffffffffffffffffffffffffffffff1673ffffffffffffffffffffffffffffffffffffffff163373ffffffffffffffffffffffffffffffffffffffff1603610f97576040517f08c379a0000000000000000000000000000000000000000000000000000000008152600401610f8e906121eb565b60405180910390fd5b34816004016000828254610fab9190611e57565b92505081905550346002600084815260200190815260200160002060003373ffffffffffffffffffffffffffffffffffffffff1673ffffffffffffffffffffffffffffffffffffffff16815260200190815260200160002060008282546110129190611e57565b925050819055503373ffffffffffffffffffffffffffffffffffffffff16827f0a4a91237423e0a1766a761c7cb029311d8b95d6b1b81db1b949a70c98b4e08e346040516110609190611370565b60405180910390a380600201548160040154106110a55760018160070160006101000a81548160ff0219169083600281111561109f5761109e6111f6565b5b02179055505b5050565b600080fd5b600080fd5b6000819050919050565b6110c6816110b3565b81146110d157600080fd5b50565b6000813590506110e3816110bd565b92915050565b6000602082840312156110ff576110fe6110a9565b5b600061110d848285016110d4565b91505092915050565b61111f816110b3565b82525050565b600073ffffffffffffffffffffffffffffffffffffffff82169050919050565b600061115082611125565b9050919050565b61116081611145565b82525050565b600081519050919050565b600082825260208201905092915050565b60005b838110156111a0578082015181840152602081019050611185565b60008484015250505050565b6000601f19601f8301169050919050565b60006111c882611166565b6111d28185611171565b93506111e2818560208601611182565b6111eb816111ac565b840191505092915050565b7f4e487b7100000000000000000000000000000000000000000000000000000000600052602160045260246000fd5b60038110611236576112356111f6565b5b50565b600081905061124782611225565b919050565b600061125782611239565b9050919050565b6112678161124c565b82525050565b600061010082019050611283600083018b611116565b611290602083018a611157565b61129d6040830189611116565b6112aa6060830188611116565b6112b76080830187611116565b6112c460a0830186611116565b81810360c08301526112d681856111bd565b90506112e560e083018461125e565b9998505050505050505050565b60006112fd82611125565b9050919050565b61130d816112f2565b811461131857600080fd5b50565b60008135905061132a81611304565b92915050565b60008060408385031215611347576113466110a9565b5b6000611355858286016110d4565b92505060206113668582860161131b565b9150509250929050565b60006020820190506113856000830184611116565b92915050565b600080fd5b600080fd5b600080fd5b60008083601f8401126113b0576113af61138b565b5b8235905067ffffffffffffffff8111156113cd576113cc611390565b5b6020830191508360018202830111156113e9576113e8611395565b5b9250929050565b60008060008060006080868803121561140c5761140b6110a9565b5b600061141a888289016110d4565b955050602061142b888289016110d4565b945050604061143c888289016110d4565b935050606086013567ffffffffffffffff81111561145d5761145c6110ae565b5b6114698882890161139a565b92509250509295509295909350565b611481816112f2565b82525050565b60006101008201905061149d600083018b611116565b6114aa602083018a611478565b6114b76040830189611116565b6114c46060830188611116565b6114d16080830187611116565b6114de60a0830186611116565b81810360c08301526114f081856111bd565b90506114ff60e083018461125e565b9998505050505050505050565b60008060008060608587031215611526576115256110a9565b5b6000611534878288016110d4565b9450506020611545878288016110d4565b935050604085013567ffffffffffffffff811115611566576115656110ae565b5b6115728782880161139a565b925092505092959194509250565b7f4e487b7100000000000000000000000000000000000000000000000000000000600052602260045260246000fd5b600060028204905060018216806115c757607f821691505b6020821081036115da576115d9611580565b5b50919050565b7f4f6e6c792063726561746f722063616e20776974686472617700000000000000600082015250565b6000611616601983611171565b9150611621826115e0565b602082019050919050565b6000602082019050818103600083015261164581611609565b9050919050565b7f43616d706169676e206d75737420626520636c6f736564206f7220737563636560008201527f737366756c000000000000000000000000000000000000000000000000000000602082015250565b60006116a8602583611171565b91506116b38261164c565b604082019050919050565b600060208201905081810360008301526116d78161169b565b9050919050565b7f4e6f2066756e647320617661696c61626c6520746f2077697468647261770000600082015250565b6000611714601e83611171565b915061171f826116de565b602082019050919050565b6000602082019050818103600083015261174381611707565b9050919050565b600081905092915050565b50565b600061176560008361174a565b915061177082611755565b600082019050919050565b600061178682611758565b9150819050919050565b7f5769746864726177207472616e73666572206661696c65640000000000000000600082015250565b60006117c6601883611171565b91506117d182611790565b602082019050919050565b600060208201905081810360008301526117f5816117b9565b9050919050565b7f4f6e6c792063726561746f722063616e20757064617465207468652063616d7060008201527f6169676e00000000000000000000000000000000000000000000000000000000602082015250565b6000611858602483611171565b9150611863826117fc565b604082019050919050565b600060208201905081810360008301526118878161184b565b9050919050565b7f43616d706169676e206973206e6f742061637469766500000000000000000000600082015250565b60006118c4601683611171565b91506118cf8261188e565b602082019050919050565b600060208201905081810360008301526118f3816118b7565b9050919050565b7f4e657720646561646c696e65206d75737420626520696e20746865206675747560008201527f7265000000000000000000000000000000000000000000000000000000000000602082015250565b6000611956602283611171565b9150611961826118fa565b604082019050919050565b6000602082019050818103600083015261198581611949565b9050919050565b7f4e657720676f616c206d7573742062652067726561746572207468616e20746f60008201527f74616c2066756e64656400000000000000000000000000000000000000000000602082015250565b60006119e8602a83611171565b91506119f38261198c565b604082019050919050565b60006020820190508181036000830152611a17816119db565b9050919050565b600082905092915050565b7f4e487b7100000000000000000000000000000000000000000000000000000000600052604160045260246000fd5b60008190508160005260206000209050919050565b60006020601f8301049050919050565b600082821b905092915050565b600060088302611aba7fffffffffffffffffffffffffffffffffffffffffffffffffffffffffffffffff82611a7d565b611ac48683611a7d565b95508019841693508086168417925050509392505050565b6000819050919050565b6000611b01611afc611af7846110b3565b611adc565b6110b3565b9050919050565b6000819050919050565b611b1b83611ae6565b611b2f611b2782611b08565b848454611a8a565b825550505050565b600090565b611b44611b37565b611b4f818484611b12565b505050565b5b81811015611b7357611b68600082611b3c565b600181019050611b55565b5050565b601f821115611bb857611b8981611a58565b611b9284611a6d565b81016020851015611ba1578190505b611bb5611bad85611a6d565b830182611b54565b50505b505050565b600082821c905092915050565b6000611bdb60001984600802611bbd565b1980831691505092915050565b6000611bf48383611bca565b9150826002028217905092915050565b611c0e8383611a1e565b67ffffffffffffffff811115611c2757611c26611a29565b5b611c3182546115af565b611c3c828285611b77565b6000601f831160018114611c6b5760008415611c59578287013590505b611c638582611be8565b865550611ccb565b601f198416611c7986611a58565b60005b82811015611ca157848901358255600182019150602085019450602081019050611c7c565b86831015611cbe5784890135611cba601f891682611bca565b8355505b6001600288020188555050505b50505050505050565b82818337600083830152505050565b6000611cef8385611171565b9350611cfc838584611cd4565b611d05836111ac565b840190509392505050565b6000606082019050611d256000830187611116565b611d326020830186611116565b8181036040830152611d45818486611ce3565b905095945050505050565b7f446561646c696e65206d75737420626520696e20746865206675747572650000600082015250565b6000611d86601e83611171565b9150611d9182611d50565b602082019050919050565b60006020820190508181036000830152611db581611d79565b9050919050565b7f476f616c206d7573742062652067726561746572207468616e20300000000000600082015250565b6000611df2601b83611171565b9150611dfd82611dbc565b602082019050919050565b60006020820190508181036000830152611e2181611de5565b9050919050565b7f4e487b7100000000000000000000000000000000000000000000000000000000600052601160045260246000fd5b6000611e62826110b3565b9150611e6d836110b3565b9250828201905080821115611e8557611e84611e28565b5b92915050565b611e9482611166565b67ffffffffffffffff811115611ead57611eac611a29565b5b611eb782546115af565b611ec2828285611b77565b600060209050601f831160018114611ef55760008415611ee3578287015190505b611eed8582611be8565b865550611f55565b601f198416611f0386611a58565b60005b82811015611f2b57848901518255600182019150602085019450602081019050611f06565b86831015611f485784890151611f44601f891682611bca565b8355505b6001600288020188555050505b505050505050565b7f4f6e6c792063726561746f722063616e20636c6f736500000000000000000000600082015250565b6000611f93601683611171565b9150611f9e82611f5d565b602082019050919050565b60006020820190508181036000830152611fc281611f86565b9050919050565b7f43616d706169676e2063616e6e6f7420626520636c6f73656400000000000000600082015250565b6000611fff601983611171565b915061200a82611fc9565b602082019050919050565b6000602082019050818103600083015261202e81611ff2565b9050919050565b7f43616d706169676e20697320636c6f7365640000000000000000000000000000600082015250565b600061206b601283611171565b915061207682612035565b602082019050919050565b6000602082019050818103600083015261209a8161205e565b9050919050565b7f43616d706169676e2068617320656e6465640000000000000000000000000000600082015250565b60006120d7601283611171565b91506120e2826120a1565b602082019050919050565b60006020820190508181036000830152612106816120ca565b9050919050565b7f4e6f204554482073656e74000000000000000000000000000000000000000000600082015250565b6000612143600b83611171565b915061214e8261210d565b602082019050919050565b6000602082019050818103600083015261217281612136565b9050919050565b7f43726561746f722063616e6e6f742066756e64207468656972206f776e20636160008201527f6d706169676e0000000000000000000000000000000000000000000000000000602082015250565b60006121d5602683611171565b91506121e082612179565b604082019050919050565b60006020820190508181036000830152612204816121c8565b905091905056fea26469706673582212203e6633335ddfeec61bd0970734f66c4df316c720fb6a831ab53ad2823e0e41f964736f6c634300081c0033",
  "linkReferences": {},
  "deployedLinkReferences": {}
}